{
  "address": "0x02a4A91b6b3bf4b2c0aD9fA8af479cbE28Aa6C98",
  "abi": [
    {
      "inputs": [
        {
          "internalType": "contract IStopLimitOrder",
          "name": "_stopLimitOrder",
          "type": "address"
        },
        {
          "internalType": "contract IBentoBoxV1",
          "name": "_bentoBox",
          "type": "address"
        },
        {
          "internalType": "address",
          "name": "_factory",
          "type": "address"
        },
        {
          "internalType": "bytes32",
          "name": "_pairCodeHash",
          "type": "bytes32"
        }
      ],
      "stateMutability": "nonpayable",
      "type": "constructor"
    },
    {
      "inputs": [],
      "name": "bentoBox",
      "outputs": [
        {
          "internalType": "contract IBentoBoxV1",
          "name": "",
          "type": "address"
        }
      ],
      "stateMutability": "view",
      "type": "function"
    },
    {
      "inputs": [],
      "name": "factory",
      "outputs": [
        {
          "internalType": "address",
          "name": "",
          "type": "address"
        }
      ],
      "stateMutability": "view",
      "type": "function"
    },
    {
      "inputs": [
        {
          "internalType": "address[]",
          "name": "users",
          "type": "address[]"
        },
        {
          "internalType": "bytes32[]",
          "name": "digests",
          "type": "bytes32[]"
        }
      ],
      "name": "getOrderInfo",
      "outputs": [
        {
          "components": [
            {
              "internalType": "uint256",
              "name": "filledAmount",
              "type": "uint256"
            },
            {
              "internalType": "bool",
              "name": "cancelled",
              "type": "bool"
            },
            {
              "internalType": "uint256",
              "name": "tokenInBalance",
              "type": "uint256"
            }
          ],
          "internalType": "struct Helper2.OrderInfo[]",
          "name": "",
          "type": "tuple[]"
        }
      ],
      "stateMutability": "view",
      "type": "function"
    },
    {
      "inputs": [
        {
          "internalType": "address[]",
          "name": "users",
          "type": "address[]"
        },
        {
          "internalType": "contract IERC20[]",
          "name": "tokens",
          "type": "address[]"
        },
        {
          "internalType": "bytes32[]",
          "name": "digests",
          "type": "bytes32[]"
        }
      ],
      "name": "getOrderInfoWithBalance",
      "outputs": [
        {
          "components": [
            {
              "internalType": "uint256",
              "name": "filledAmount",
              "type": "uint256"
            },
            {
              "internalType": "bool",
              "name": "cancelled",
              "type": "bool"
            },
            {
              "internalType": "uint256",
              "name": "tokenInBalance",
              "type": "uint256"
            }
          ],
          "internalType": "struct Helper2.OrderInfo[]",
          "name": "",
          "type": "tuple[]"
        }
      ],
      "stateMutability": "view",
      "type": "function"
    },
    {
      "inputs": [
        {
          "internalType": "address[]",
          "name": "users",
          "type": "address[]"
        },
        {
          "internalType": "contract IERC20[]",
          "name": "tokens",
          "type": "address[]"
        },
        {
          "internalType": "bytes32[]",
          "name": "digests",
          "type": "bytes32[]"
        }
      ],
      "name": "getOrderUserInfo",
      "outputs": [
        {
          "components": [
            {
              "internalType": "uint256",
              "name": "filledAmount",
              "type": "uint256"
            },
            {
              "internalType": "bool",
              "name": "cancelled",
              "type": "bool"
            },
            {
              "internalType": "uint256",
              "name": "makersBentoBalance",
              "type": "uint256"
            },
            {
              "internalType": "bool",
              "name": "approvedMasterContract",
              "type": "bool"
            }
          ],
          "internalType": "struct Helper2.OrderUserInfo[]",
          "name": "",
          "type": "tuple[]"
        }
      ],
      "stateMutability": "view",
      "type": "function"
    },
    {
      "inputs": [
        {
          "internalType": "contract IERC20[]",
          "name": "tokensA",
          "type": "address[]"
        },
        {
          "internalType": "contract IERC20[]",
          "name": "tokensB",
          "type": "address[]"
        }
      ],
      "name": "getPoolInfo",
      "outputs": [
        {
          "components": [
            {
              "internalType": "uint256",
              "name": "tokenAPoolBalance",
              "type": "uint256"
            },
            {
              "internalType": "uint256",
              "name": "tokenBPoolBalance",
              "type": "uint256"
            }
          ],
          "internalType": "struct Helper2.PoolInfo[]",
          "name": "",
          "type": "tuple[]"
        }
      ],
      "stateMutability": "view",
      "type": "function"
    },
    {
      "inputs": [],
      "name": "pairCodeHash",
      "outputs": [
        {
          "internalType": "bytes32",
          "name": "",
          "type": "bytes32"
        }
      ],
      "stateMutability": "view",
      "type": "function"
    },
    {
      "inputs": [],
      "name": "stopLimitOrder",
      "outputs": [
        {
          "internalType": "contract IStopLimitOrder",
          "name": "",
          "type": "address"
        }
      ],
      "stateMutability": "view",
      "type": "function"
    }
  ],
  "transactionHash": "0x3a0822a5d3df24b0486302e656b39da721c8244d02490155ee16777ca689df06",
  "args": [
    "0x7166806B5eA6B5a6b81775E5Da8aa16310e32459",
    "0xF5BCE5077908a1b7370B9ae04AdC565EBd643966",
    "0xC0AEe478e3658e2610c5F7A4A2E1777cE9e4f2Ac",
    "0xe18a34eb0e04b04f7a0ac29a6e80748dca96319b42c54d679cb821dca90c6303"
  ],
  "numDeployments": 1,
  "solcInputHash": "f90e99e9113dffa93b51a46021509c3c",
  "bytecode": "0x6101006040523480156200001257600080fd5b50604051620015473803806200154783398101604081905262000035916200005f565b6001600160601b0319606094851b811660805292841b831660a052921b1660c05260e052620000d1565b6000806000806080858703121562000075578384fd5b84516200008281620000b8565b60208601519094506200009581620000b8565b6040860151909350620000a881620000b8565b6060959095015193969295505050565b6001600160a01b0381168114620000ce57600080fd5b50565b60805160601c60a05160601c60c05160601c60e0516113fb6200014c6000398061071c52806108c55250806106d35280610cd752508061035952806108a15280610afe5280610bde5250806101a8528061027352806104ad5280610578528061094d5280610a185280610c0d5280610cfb52506113fb6000f3fe608060405234801561001057600080fd5b50600436106100875760003560e01c80639aab92481161005b5780639aab9248146100fd578063ae9d5bec14610112578063c45a015514610132578063e7d542281461013a57610087565b806262b3ca1461008c5780630334d43e146100b55780633e806c18146100c85780636b2ace87146100e8575b600080fd5b61009f61009a366004611029565b610142565b6040516100ac91906111e9565b60405180910390f35b61009f6100c3366004610fc8565b610447565b6100db6100d63660046110ad565b610668565b6040516100ac919061129f565b6100f061089f565b6040516100ac91906111a2565b6101056108c3565b6040516100ac91906112e1565b610125610120366004611029565b6108e7565b6040516100ac9190611244565b6100f0610cd5565b6100f0610cf9565b606080845167ffffffffffffffff8111801561015d57600080fd5b5060405190808252806020026020018201604052801561019757816020015b610184610e23565b81526020019060019003908161017c5790505b50905060005b855181101561043e577f00000000000000000000000000000000000000000000000000000000000000006001600160a01b0316632dff692d8583815181106101e157fe5b60200260200101516040518263ffffffff1660e01b815260040161020591906112e1565b60206040518083038186803b15801561021d57600080fd5b505afa158015610231573d6000803e3d6000fd5b505050506040513d601f19601f82011682018060405250810190610255919061112b565b82828151811061026157fe5b602002602001015160000181815250507f00000000000000000000000000000000000000000000000000000000000000006001600160a01b0316636745b38f8783815181106102ac57fe5b60200260200101518684815181106102c057fe5b60200260200101516040518363ffffffff1660e01b81526004016102e59291906111d0565b60206040518083038186803b1580156102fd57600080fd5b505afa158015610311573d6000803e3d6000fd5b505050506040513d601f19601f820116820180604052508101906103359190611104565b82828151811061034157fe5b602002602001015160200190151590811515815250507f00000000000000000000000000000000000000000000000000000000000000006001600160a01b031663f7888aec86838151811061039257fe5b60200260200101518884815181106103a657fe5b60200260200101516040518363ffffffff1660e01b81526004016103cb9291906111b6565b60206040518083038186803b1580156103e357600080fd5b505afa1580156103f7573d6000803e3d6000fd5b505050506040513d601f19601f8201168201806040525081019061041b919061112b565b82828151811061042757fe5b60209081029190910101516040015260010161019d565b50949350505050565b606080835167ffffffffffffffff8111801561046257600080fd5b5060405190808252806020026020018201604052801561049c57816020015b610489610e23565b8152602001906001900390816104815790505b50905060005b8451811015610660577f00000000000000000000000000000000000000000000000000000000000000006001600160a01b0316632dff692d8583815181106104e657fe5b60200260200101516040518263ffffffff1660e01b815260040161050a91906112e1565b60206040518083038186803b15801561052257600080fd5b505afa158015610536573d6000803e3d6000fd5b505050506040513d601f19601f8201168201806040525081019061055a919061112b565b82828151811061056657fe5b602002602001015160000181815250507f00000000000000000000000000000000000000000000000000000000000000006001600160a01b0316636745b38f8683815181106105b157fe5b60200260200101518684815181106105c557fe5b60200260200101516040518363ffffffff1660e01b81526004016105ea9291906111d0565b60206040518083038186803b15801561060257600080fd5b505afa158015610616573d6000803e3d6000fd5b505050506040513d601f19601f8201168201806040525081019061063a9190611104565b82828151811061064657fe5b6020908102919091018101519115159101526001016104a2565b509392505050565b606080835167ffffffffffffffff8111801561068357600080fd5b506040519080825280602002602001820160405280156106bd57816020015b6106aa610e46565b8152602001906001900390816106a25790505b50905060005b84518110156106605760006107407f00000000000000000000000000000000000000000000000000000000000000008784815181106106fe57fe5b602002602001015187858151811061071257fe5b60200260200101517f0000000000000000000000000000000000000000000000000000000000000000610d1d565b905085828151811061074e57fe5b60200260200101516001600160a01b03166370a08231826040518263ffffffff1660e01b815260040161078191906111a2565b60206040518083038186803b15801561079957600080fd5b505afa1580156107ad573d6000803e3d6000fd5b505050506040513d601f19601f820116820180604052508101906107d1919061112b565b8383815181106107dd57fe5b602002602001015160000181815250508482815181106107f957fe5b60200260200101516001600160a01b03166370a08231826040518263ffffffff1660e01b815260040161082c91906111a2565b60206040518083038186803b15801561084457600080fd5b505afa158015610858573d6000803e3d6000fd5b505050506040513d601f19601f8201168201806040525081019061087c919061112b565b83838151811061088857fe5b6020908102919091018101510152506001016106c3565b7f000000000000000000000000000000000000000000000000000000000000000081565b7f000000000000000000000000000000000000000000000000000000000000000081565b606080845167ffffffffffffffff8111801561090257600080fd5b5060405190808252806020026020018201604052801561093c57816020015b610929610e60565b8152602001906001900390816109215790505b50905060005b855181101561043e577f00000000000000000000000000000000000000000000000000000000000000006001600160a01b0316632dff692d85838151811061098657fe5b60200260200101516040518263ffffffff1660e01b81526004016109aa91906112e1565b60206040518083038186803b1580156109c257600080fd5b505afa1580156109d6573d6000803e3d6000fd5b505050506040513d601f19601f820116820180604052508101906109fa919061112b565b828281518110610a0657fe5b602002602001015160000181815250507f00000000000000000000000000000000000000000000000000000000000000006001600160a01b0316636745b38f878381518110610a5157fe5b6020026020010151868481518110610a6557fe5b60200260200101516040518363ffffffff1660e01b8152600401610a8a9291906111d0565b60206040518083038186803b158015610aa257600080fd5b505afa158015610ab6573d6000803e3d6000fd5b505050506040513d601f19601f82011682018060405250810190610ada9190611104565b828281518110610ae657fe5b602002602001015160200190151590811515815250507f00000000000000000000000000000000000000000000000000000000000000006001600160a01b031663f7888aec868381518110610b3757fe5b6020026020010151888481518110610b4b57fe5b60200260200101516040518363ffffffff1660e01b8152600401610b709291906111b6565b60206040518083038186803b158015610b8857600080fd5b505afa158015610b9c573d6000803e3d6000fd5b505050506040513d601f19601f82011682018060405250810190610bc0919061112b565b828281518110610bcc57fe5b602002602001015160400181815250507f00000000000000000000000000000000000000000000000000000000000000006001600160a01b03166391e0eab57f0000000000000000000000000000000000000000000000000000000000000000888481518110610c3857fe5b60200260200101516040518363ffffffff1660e01b8152600401610c5d9291906111b6565b60206040518083038186803b158015610c7557600080fd5b505afa158015610c89573d6000803e3d6000fd5b505050506040513d601f19601f82011682018060405250810190610cad9190611104565b828281518110610cb957fe5b6020908102919091010151901515606090910152600101610942565b7f000000000000000000000000000000000000000000000000000000000000000081565b7f000000000000000000000000000000000000000000000000000000000000000081565b6000806000610d2c8686610d90565b91509150868282604051602001610d44929190611143565b6040516020818303038152906040528051906020012085604051602001610d6d9392919061116a565b60408051601f198184030181529190528051602090910120979650505050505050565b600080826001600160a01b0316846001600160a01b03161415610dce5760405162461bcd60e51b8152600401610dc5906112ea565b60405180910390fd5b826001600160a01b0316846001600160a01b031610610dee578284610df1565b83835b90925090506001600160a01b038216610e1c5760405162461bcd60e51b8152600401610dc59061132f565b9250929050565b604051806060016040528060008152602001600015158152602001600081525090565b604051806040016040528060008152602001600081525090565b604051806080016040528060008152602001600015158152602001600081526020016000151581525090565b600082601f830112610e9c578081fd5b8135610eaf610eaa8261138d565b611366565b818152915060208083019084810181840286018201871015610ed057600080fd5b60005b84811015610ef8578135610ee6816113ad565b84529282019290820190600101610ed3565b505050505092915050565b600082601f830112610f13578081fd5b8135610f21610eaa8261138d565b818152915060208083019084810181840286018201871015610f4257600080fd5b60005b84811015610ef857813584529282019290820190600101610f45565b600082601f830112610f71578081fd5b8135610f7f610eaa8261138d565b818152915060208083019084810181840286018201871015610fa057600080fd5b60005b84811015610ef8578135610fb6816113ad565b84529282019290820190600101610fa3565b60008060408385031215610fda578182fd5b823567ffffffffffffffff80821115610ff1578384fd5b610ffd86838701610e8c565b93506020850135915080821115611012578283fd5b5061101f85828601610f03565b9150509250929050565b60008060006060848603121561103d578081fd5b833567ffffffffffffffff80821115611054578283fd5b61106087838801610e8c565b94506020860135915080821115611075578283fd5b61108187838801610f61565b93506040860135915080821115611096578283fd5b506110a386828701610f03565b9150509250925092565b600080604083850312156110bf578182fd5b823567ffffffffffffffff808211156110d6578384fd5b6110e286838701610f61565b935060208501359150808211156110f7578283fd5b5061101f85828601610f61565b600060208284031215611115578081fd5b81518015158114611124578182fd5b9392505050565b60006020828403121561113c578081fd5b5051919050565b6bffffffffffffffffffffffff19606093841b811682529190921b16601482015260280190565b6001600160f81b0319815260609390931b6bffffffffffffffffffffffff191660018401526015830191909152603582015260550190565b6001600160a01b0391909116815260200190565b6001600160a01b0392831681529116602082015260400190565b6001600160a01b03929092168252602082015260400190565b602080825282518282018190526000919060409081850190868401855b8281101561123757815180518552868101511515878601528501518585015260609093019290850190600101611206565b5091979650505050505050565b602080825282518282018190526000919060409081850190868401855b828110156112375781518051855286810151151587860152858101518686015260609081015115159085015260809093019290850190600101611261565b602080825282518282018190526000919060409081850190868401855b82811015611237578151805185528601518685015292840192908501906001016112bc565b90815260200190565b60208082526025908201527f556e697377617056324c6962726172793a204944454e544943414c5f41444452604082015264455353455360d81b606082015260800190565b6020808252601e908201527f556e697377617056324c6962726172793a205a45524f5f414444524553530000604082015260600190565b60405181810167ffffffffffffffff8111828210171561138557600080fd5b604052919050565b600067ffffffffffffffff8211156113a3578081fd5b5060209081020190565b6001600160a01b03811681146113c257600080fd5b5056fea2646970667358221220fb8b50dff810f2cd36fd9b3e1628505a1ddcff4f4a54bf9e5e046c808b91d84f64736f6c634300060c0033",
  "devdoc": {
    "kind": "dev",
    "methods": {},
    "version": 1
  },
  "userdoc": {
    "kind": "user",
    "methods": {},
    "version": 1
  },
  "storageLayout": {
    "storage": [],
    "types": null
  }
}