{
  "address": "0xd9e77C4E738b832ECf8b03028ff135C4101A4435",
  "abi": [
    {
      "inputs": [
        {
          "internalType": "uint256",
          "name": "_externalOrderFee",
          "type": "uint256"
        },
        {
          "internalType": "contract IBentoBoxV1",
          "name": "_bentoBox",
          "type": "address"
        }
      ],
      "stateMutability": "nonpayable",
      "type": "constructor"
    },
    {
      "anonymous": false,
      "inputs": [
        {
          "indexed": true,
          "internalType": "contract IERC20",
          "name": "token",
          "type": "address"
        },
        {
          "indexed": true,
          "internalType": "address",
          "name": "feeTo",
          "type": "address"
        },
        {
          "indexed": false,
          "internalType": "uint256",
          "name": "amount",
          "type": "uint256"
        }
      ],
      "name": "LogFeesCollected",
      "type": "event"
    },
    {
      "anonymous": false,
      "inputs": [
        {
          "indexed": true,
          "internalType": "address",
          "name": "maker",
          "type": "address"
        },
        {
          "indexed": true,
          "internalType": "bytes32",
          "name": "digest",
          "type": "bytes32"
        },
        {
          "indexed": false,
          "internalType": "contract ILimitOrderReceiver",
          "name": "receiver",
          "type": "address"
        },
        {
          "indexed": false,
          "internalType": "uint256",
          "name": "fillAmount",
          "type": "uint256"
        }
      ],
      "name": "LogFillOrder",
      "type": "event"
    },
    {
      "anonymous": false,
      "inputs": [
        {
          "indexed": true,
          "internalType": "address",
          "name": "user",
          "type": "address"
        },
        {
          "indexed": true,
          "internalType": "bytes32",
          "name": "digest",
          "type": "bytes32"
        }
      ],
      "name": "LogOrderCancelled",
      "type": "event"
    },
    {
      "anonymous": false,
      "inputs": [
        {
          "indexed": true,
          "internalType": "address",
          "name": "feeTo",
          "type": "address"
        },
        {
          "indexed": false,
          "internalType": "uint256",
          "name": "externalOrderFee",
          "type": "uint256"
        }
      ],
      "name": "LogSetFees",
      "type": "event"
    },
    {
      "anonymous": false,
      "inputs": [
        {
          "indexed": true,
          "internalType": "contract ILimitOrderReceiver",
          "name": "receiver",
          "type": "address"
        }
      ],
      "name": "LogWhiteListReceiver",
      "type": "event"
    },
    {
      "anonymous": false,
      "inputs": [
        {
          "indexed": true,
          "internalType": "address",
          "name": "previousOwner",
          "type": "address"
        },
        {
          "indexed": true,
          "internalType": "address",
          "name": "newOwner",
          "type": "address"
        }
      ],
      "name": "OwnershipTransferred",
      "type": "event"
    },
    {
      "inputs": [],
      "name": "FEE_DIVISOR",
      "outputs": [
        {
          "internalType": "uint256",
          "name": "",
          "type": "uint256"
        }
      ],
      "stateMutability": "view",
      "type": "function"
    },
    {
      "inputs": [
        {
          "internalType": "bytes[]",
          "name": "calls",
          "type": "bytes[]"
        },
        {
          "internalType": "bool",
          "name": "revertOnFail",
          "type": "bool"
        }
      ],
      "name": "batch",
      "outputs": [
        {
          "internalType": "bool[]",
          "name": "successes",
          "type": "bool[]"
        },
        {
          "internalType": "bytes[]",
          "name": "results",
          "type": "bytes[]"
        }
      ],
      "stateMutability": "payable",
      "type": "function"
    },
    {
      "inputs": [
        {
          "components": [
            {
              "internalType": "address",
              "name": "maker",
              "type": "address"
            },
            {
              "internalType": "uint256",
              "name": "amountIn",
              "type": "uint256"
            },
            {
              "internalType": "uint256",
              "name": "amountOut",
              "type": "uint256"
            },
            {
              "internalType": "address",
              "name": "recipient",
              "type": "address"
            },
            {
              "internalType": "uint256",
              "name": "startTime",
              "type": "uint256"
            },
            {
              "internalType": "uint256",
              "name": "endTime",
              "type": "uint256"
            },
            {
              "internalType": "uint256",
              "name": "stopPrice",
              "type": "uint256"
            },
            {
              "internalType": "contract IOracle",
              "name": "oracleAddress",
              "type": "address"
            },
            {
              "internalType": "bytes",
              "name": "oracleData",
              "type": "bytes"
            },
            {
              "internalType": "uint256",
              "name": "amountToFill",
              "type": "uint256"
            },
            {
              "internalType": "uint8",
              "name": "v",
              "type": "uint8"
            },
            {
              "internalType": "bytes32",
              "name": "r",
              "type": "bytes32"
            },
            {
              "internalType": "bytes32",
              "name": "s",
              "type": "bytes32"
            }
          ],
          "internalType": "struct StopLimitOrder.OrderArgs[]",
          "name": "order",
          "type": "tuple[]"
        },
        {
          "internalType": "contract IERC20",
          "name": "tokenIn",
          "type": "address"
        },
        {
          "internalType": "contract IERC20",
          "name": "tokenOut",
          "type": "address"
        },
        {
          "internalType": "contract ILimitOrderReceiver",
          "name": "receiver",
          "type": "address"
        },
        {
          "internalType": "bytes",
          "name": "data",
          "type": "bytes"
        }
      ],
      "name": "batchFillOrder",
      "outputs": [],
      "stateMutability": "nonpayable",
      "type": "function"
    },
    {
      "inputs": [
        {
          "components": [
            {
              "internalType": "address",
              "name": "maker",
              "type": "address"
            },
            {
              "internalType": "uint256",
              "name": "amountIn",
              "type": "uint256"
            },
            {
              "internalType": "uint256",
              "name": "amountOut",
              "type": "uint256"
            },
            {
              "internalType": "address",
              "name": "recipient",
              "type": "address"
            },
            {
              "internalType": "uint256",
              "name": "startTime",
              "type": "uint256"
            },
            {
              "internalType": "uint256",
              "name": "endTime",
              "type": "uint256"
            },
            {
              "internalType": "uint256",
              "name": "stopPrice",
              "type": "uint256"
            },
            {
              "internalType": "contract IOracle",
              "name": "oracleAddress",
              "type": "address"
            },
            {
              "internalType": "bytes",
              "name": "oracleData",
              "type": "bytes"
            },
            {
              "internalType": "uint256",
              "name": "amountToFill",
              "type": "uint256"
            },
            {
              "internalType": "uint8",
              "name": "v",
              "type": "uint8"
            },
            {
              "internalType": "bytes32",
              "name": "r",
              "type": "bytes32"
            },
            {
              "internalType": "bytes32",
              "name": "s",
              "type": "bytes32"
            }
          ],
          "internalType": "struct StopLimitOrder.OrderArgs[]",
          "name": "order",
          "type": "tuple[]"
        },
        {
          "internalType": "contract IERC20",
          "name": "tokenIn",
          "type": "address"
        },
        {
          "internalType": "contract IERC20",
          "name": "tokenOut",
          "type": "address"
        },
        {
          "internalType": "contract ILimitOrderReceiver",
          "name": "receiver",
          "type": "address"
        },
        {
          "internalType": "bytes",
          "name": "data",
          "type": "bytes"
        }
      ],
      "name": "batchFillOrderOpen",
      "outputs": [],
      "stateMutability": "nonpayable",
      "type": "function"
    },
    {
      "inputs": [
        {
          "internalType": "bytes32",
          "name": "hash",
          "type": "bytes32"
        }
      ],
      "name": "cancelOrder",
      "outputs": [],
      "stateMutability": "nonpayable",
      "type": "function"
    },
    {
      "inputs": [
        {
          "internalType": "address",
          "name": "",
          "type": "address"
        },
        {
          "internalType": "bytes32",
          "name": "",
          "type": "bytes32"
        }
      ],
      "name": "cancelledOrder",
      "outputs": [
        {
          "internalType": "bool",
          "name": "",
          "type": "bool"
        }
      ],
      "stateMutability": "view",
      "type": "function"
    },
    {
      "inputs": [],
      "name": "claimOwnership",
      "outputs": [],
      "stateMutability": "nonpayable",
      "type": "function"
    },
    {
      "inputs": [],
      "name": "deploymentChainId",
      "outputs": [
        {
          "internalType": "uint256",
          "name": "",
          "type": "uint256"
        }
      ],
      "stateMutability": "view",
      "type": "function"
    },
    {
      "inputs": [],
      "name": "externalOrderFee",
      "outputs": [
        {
          "internalType": "uint256",
          "name": "",
          "type": "uint256"
        }
      ],
      "stateMutability": "view",
      "type": "function"
    },
    {
      "inputs": [],
      "name": "feeTo",
      "outputs": [
        {
          "internalType": "address",
          "name": "",
          "type": "address"
        }
      ],
      "stateMutability": "view",
      "type": "function"
    },
    {
      "inputs": [
        {
          "internalType": "contract IERC20",
          "name": "",
          "type": "address"
        }
      ],
      "name": "feesCollected",
      "outputs": [
        {
          "internalType": "uint256",
          "name": "",
          "type": "uint256"
        }
      ],
      "stateMutability": "view",
      "type": "function"
    },
    {
      "inputs": [
        {
          "components": [
            {
              "internalType": "address",
              "name": "maker",
              "type": "address"
            },
            {
              "internalType": "uint256",
              "name": "amountIn",
              "type": "uint256"
            },
            {
              "internalType": "uint256",
              "name": "amountOut",
              "type": "uint256"
            },
            {
              "internalType": "address",
              "name": "recipient",
              "type": "address"
            },
            {
              "internalType": "uint256",
              "name": "startTime",
              "type": "uint256"
            },
            {
              "internalType": "uint256",
              "name": "endTime",
              "type": "uint256"
            },
            {
              "internalType": "uint256",
              "name": "stopPrice",
              "type": "uint256"
            },
            {
              "internalType": "contract IOracle",
              "name": "oracleAddress",
              "type": "address"
            },
            {
              "internalType": "bytes",
              "name": "oracleData",
              "type": "bytes"
            },
            {
              "internalType": "uint256",
              "name": "amountToFill",
              "type": "uint256"
            },
            {
              "internalType": "uint8",
              "name": "v",
              "type": "uint8"
            },
            {
              "internalType": "bytes32",
              "name": "r",
              "type": "bytes32"
            },
            {
              "internalType": "bytes32",
              "name": "s",
              "type": "bytes32"
            }
          ],
          "internalType": "struct StopLimitOrder.OrderArgs",
          "name": "order",
          "type": "tuple"
        },
        {
          "internalType": "contract IERC20",
          "name": "tokenIn",
          "type": "address"
        },
        {
          "internalType": "contract IERC20",
          "name": "tokenOut",
          "type": "address"
        },
        {
          "internalType": "contract ILimitOrderReceiver",
          "name": "receiver",
          "type": "address"
        },
        {
          "internalType": "bytes",
          "name": "data",
          "type": "bytes"
        }
      ],
      "name": "fillOrder",
      "outputs": [],
      "stateMutability": "nonpayable",
      "type": "function"
    },
    {
      "inputs": [
        {
          "components": [
            {
              "internalType": "address",
              "name": "maker",
              "type": "address"
            },
            {
              "internalType": "uint256",
              "name": "amountIn",
              "type": "uint256"
            },
            {
              "internalType": "uint256",
              "name": "amountOut",
              "type": "uint256"
            },
            {
              "internalType": "address",
              "name": "recipient",
              "type": "address"
            },
            {
              "internalType": "uint256",
              "name": "startTime",
              "type": "uint256"
            },
            {
              "internalType": "uint256",
              "name": "endTime",
              "type": "uint256"
            },
            {
              "internalType": "uint256",
              "name": "stopPrice",
              "type": "uint256"
            },
            {
              "internalType": "contract IOracle",
              "name": "oracleAddress",
              "type": "address"
            },
            {
              "internalType": "bytes",
              "name": "oracleData",
              "type": "bytes"
            },
            {
              "internalType": "uint256",
              "name": "amountToFill",
              "type": "uint256"
            },
            {
              "internalType": "uint8",
              "name": "v",
              "type": "uint8"
            },
            {
              "internalType": "bytes32",
              "name": "r",
              "type": "bytes32"
            },
            {
              "internalType": "bytes32",
              "name": "s",
              "type": "bytes32"
            }
          ],
          "internalType": "struct StopLimitOrder.OrderArgs",
          "name": "order",
          "type": "tuple"
        },
        {
          "internalType": "contract IERC20",
          "name": "tokenIn",
          "type": "address"
        },
        {
          "internalType": "contract IERC20",
          "name": "tokenOut",
          "type": "address"
        },
        {
          "internalType": "contract ILimitOrderReceiver",
          "name": "receiver",
          "type": "address"
        },
        {
          "internalType": "bytes",
          "name": "data",
          "type": "bytes"
        }
      ],
      "name": "fillOrderOpen",
      "outputs": [],
      "stateMutability": "nonpayable",
      "type": "function"
    },
    {
      "inputs": [
        {
          "internalType": "bytes32",
          "name": "",
          "type": "bytes32"
        }
      ],
      "name": "orderStatus",
      "outputs": [
        {
          "internalType": "uint256",
          "name": "",
          "type": "uint256"
        }
      ],
      "stateMutability": "view",
      "type": "function"
    },
    {
      "inputs": [],
      "name": "owner",
      "outputs": [
        {
          "internalType": "address",
          "name": "",
          "type": "address"
        }
      ],
      "stateMutability": "view",
      "type": "function"
    },
    {
      "inputs": [],
      "name": "pendingOwner",
      "outputs": [
        {
          "internalType": "address",
          "name": "",
          "type": "address"
        }
      ],
      "stateMutability": "view",
      "type": "function"
    },
    {
      "inputs": [
        {
          "internalType": "contract IERC20",
          "name": "token",
          "type": "address"
        },
        {
          "internalType": "address",
          "name": "from",
          "type": "address"
        },
        {
          "internalType": "address",
          "name": "to",
          "type": "address"
        },
        {
          "internalType": "uint256",
          "name": "amount",
          "type": "uint256"
        },
        {
          "internalType": "uint256",
          "name": "deadline",
          "type": "uint256"
        },
        {
          "internalType": "uint8",
          "name": "v",
          "type": "uint8"
        },
        {
          "internalType": "bytes32",
          "name": "r",
          "type": "bytes32"
        },
        {
          "internalType": "bytes32",
          "name": "s",
          "type": "bytes32"
        }
      ],
      "name": "permitToken",
      "outputs": [],
      "stateMutability": "nonpayable",
      "type": "function"
    },
    {
      "inputs": [
        {
          "internalType": "address",
          "name": "_feeTo",
          "type": "address"
        },
        {
          "internalType": "uint256",
          "name": "_externalOrderFee",
          "type": "uint256"
        }
      ],
      "name": "setFees",
      "outputs": [],
      "stateMutability": "nonpayable",
      "type": "function"
    },
    {
      "inputs": [
        {
          "internalType": "contract IERC20",
          "name": "token",
          "type": "address"
        }
      ],
      "name": "swipe",
      "outputs": [],
      "stateMutability": "nonpayable",
      "type": "function"
    },
    {
      "inputs": [
        {
          "internalType": "contract IERC20",
          "name": "token",
          "type": "address"
        }
      ],
      "name": "swipeFees",
      "outputs": [],
      "stateMutability": "nonpayable",
      "type": "function"
    },
    {
      "inputs": [
        {
          "internalType": "address",
          "name": "newOwner",
          "type": "address"
        },
        {
          "internalType": "bool",
          "name": "direct",
          "type": "bool"
        },
        {
          "internalType": "bool",
          "name": "renounce",
          "type": "bool"
        }
      ],
      "name": "transferOwnership",
      "outputs": [],
      "stateMutability": "nonpayable",
      "type": "function"
    },
    {
      "inputs": [
        {
          "internalType": "contract ILimitOrderReceiver",
          "name": "receiver",
          "type": "address"
        }
      ],
      "name": "whiteListReceiver",
      "outputs": [],
      "stateMutability": "nonpayable",
      "type": "function"
    }
  ],
  "transactionHash": "0xf7eb4d4cc138655c0e72033476104e4209616022590f62a91c8e7d8156c4eb95",
  "args": [
    100,
    "0x0319000133d3AdA02600f0875d2cf03D442C3367"
  ],
  "solcInputHash": "19fe208d795d0d5700bff02a0f9af861",
  "bytecode": "0x60e06040523480156200001157600080fd5b5060405162002d9938038062002d9983398101604081905262000034916200018c565b600080546001600160a01b0319163390811782556040519091907f8be0079c531659141344cd1fd0a4f28419497f9722a3daafe3b4186f6b6457e0908290a34660a0819052620000848162000114565b6080526002839055600380546001600160a01b031916331790556001600160601b0319606083901b1660c0526040805163577268d960e11b815290516001600160a01b0384169163aee4d1b291600480830192600092919082900301818387803b158015620000f257600080fd5b505af115801562000107573d6000803e3d6000fd5b50505050505050620001ed565b60007f8cad95687ba82c2ce50e74f7b754645e5117c3a5bec8151c0726d5857980a8667f60f7369f0450eeece08b3b96921dc6c416599bab90758942976243b3b025f39083306040516020016200016f9493929190620001c9565b604051602081830303815290604052805190602001209050919050565b600080604083850312156200019f578182fd5b825160208401519092506001600160a01b0381168114620001be578182fd5b809150509250929050565b938452602084019290925260408301526001600160a01b0316606082015260800190565b60805160a05160c05160601c612b366200026360003980610714528061074a52806109dd5280610abc5280610b505280610c7e5280610cfe5280610f075280610f9b5280611096528061114252806116fb52806118cc52806119895250806112a35280611d9c525080611dd15250612b366000f3fe6080604052600436106101355760003560e01c80637c516e94116100ab5780639e93ad8e1161006f5780639e93ad8e14610340578063c5b82ae014610355578063cce7db5814610375578063cd0d009614610395578063d2423b51146103aa578063e30c3978146103cb57610135565b80637c516e94146102ab57806380fdbba7146102cb5780638da5cb5b146102eb57806395287c0514610300578063995f14ba1461032057610135565b80635947cde6116100fd5780635947cde6146101e95780635b2478ea146101fe5780635e5c6ada1461021e5780636745b38f1461023e5780637074a67c1461026b5780637489ec231461028b57610135565b8063017e7e581461013a578063078dfbe7146101655780632dff692d146101875780634e71e0c8146101b457806356e88ff1146101c9575b600080fd5b34801561014657600080fd5b5061014f6103e0565b60405161015c919061250b565b60405180910390f35b34801561017157600080fd5b5061018561018036600461203b565b6103ef565b005b34801561019357600080fd5b506101a76101a2366004612269565b6104de565b60405161015c9190612a14565b3480156101c057600080fd5b506101856104f0565b3480156101d557600080fd5b506101856101e4366004612281565b61057d565b3480156101f557600080fd5b506101a76105f3565b34801561020a57600080fd5b506101a7610219366004612281565b6105f9565b34801561022a57600080fd5b50610185610239366004612085565b61060b565b34801561024a57600080fd5b5061025e610259366004612085565b610694565b60405161015c9190612613565b34801561027757600080fd5b50610185610286366004612390565b6106b4565b34801561029757600080fd5b506101856102a6366004612269565b610844565b3480156102b757600080fd5b506101856102c636600461229d565b610894565b3480156102d757600080fd5b506101856102e6366004612124565b6108cc565b3480156102f757600080fd5b5061014f610c1d565b34801561030c57600080fd5b5061018561031b366004612390565b610c2c565b34801561032c57600080fd5b5061018561033b366004612124565b610df2565b34801561034c57600080fd5b506101a761105b565b34801561036157600080fd5b50610185610370366004612281565b611062565b34801561038157600080fd5b50610185610390366004612281565b611201565b3480156103a157600080fd5b506101a76112a1565b6103bd6103b83660046120b0565b6112c5565b60405161015c929190612579565b3480156103d757600080fd5b5061014f611455565b6003546001600160a01b031681565b6000546001600160a01b031633146104225760405162461bcd60e51b8152600401610419906128c8565b60405180910390fd5b81156104bd576001600160a01b03831615158061043c5750805b6104585760405162461bcd60e51b815260040161041990612832565b600080546040516001600160a01b03808716939216917f8be0079c531659141344cd1fd0a4f28419497f9722a3daafe3b4186f6b6457e091a3600080546001600160a01b0385166001600160a01b0319918216179091556001805490911690556104d9565b600180546001600160a01b0319166001600160a01b0385161790555b505050565b60066020526000908152604090205481565b6001546001600160a01b031633811461051b5760405162461bcd60e51b81526004016104199061294e565b600080546040516001600160a01b03808516939216917f8be0079c531659141344cd1fd0a4f28419497f9722a3daafe3b4186f6b6457e091a3600080546001600160a01b039092166001600160a01b0319928316179055600180549091169055565b6000546001600160a01b031633146105a75760405162461bcd60e51b8152600401610419906128c8565b6001600160a01b038116600081815260046020526040808220805460ff19166001179055517f644d95380df3e33c8f52bdf77ac2b81858adf2ef3556fdb2dd4d83b1a18801719190a250565b60025481565b60076020526000908152604090205481565b6000546001600160a01b031633146106355760405162461bcd60e51b8152600401610419906128c8565b600380546001600160a01b0319166001600160a01b03841690811790915560028290556040517f2ea9bd407f4356d98500b95cfcbae976433d797a4540b1a143b3581f43204dd090610688908490612a14565b60405180910390a25050565b600560209081526000928352604080842090915290825290205460ff1681565b6001600160a01b03831660009081526004602052604090205460ff166106ec5760405162461bcd60e51b8152600401610419906127fb565b6000806106fb88888888611464565b9250925050610711878787878786886000611835565b507f00000000000000000000000000000000000000000000000000000000000000006001600160a01b031663f18d03cc87308b606001517f00000000000000000000000000000000000000000000000000000000000000006001600160a01b031663da5139ca8c8960006040518463ffffffff1660e01b815260040161079993929190612772565b60206040518083038186803b1580156107b157600080fd5b505afa1580156107c5573d6000803e3d6000fd5b505050506040513d601f19601f820116820180604052508101906107e99190612474565b6040518563ffffffff1660e01b815260040161080894939291906126ef565b600060405180830381600087803b15801561082257600080fd5b505af1158015610836573d6000803e3d6000fd5b505050505050505050505050565b336000818152600560209081526040808320858452909152808220805460ff19166001179055518392917f4612030685f9030d043c9ace9b793008c325c54e54484ee9d7a0f8b85817fc5a91a350565b60405163d505accf60e01b81526001600160a01b0389169063d505accf90610808908a908a908a908a908a908a908a9060040161251f565b606086516001600160401b03811180156108e557600080fd5b5060405190808252806020026020018201604052801561090f578160200160208202803683370190505b50905060008060005b895181101561099e5760006109428b838151811061093257fe5b60200260200101518b8b8b611464565b90915086848151811061095157fe5b6020908102919091010191909152905061096b8482611a3a565b935061099385838151811061097c57fe5b602002602001015184611a3a90919063ffffffff16565b925050600101610918565b506000620f42406109ba60025484611a6390919063ffffffff16565b816109c157fe5b04905060006109d68a8a8a8a8a898989611835565b9050610a837f00000000000000000000000000000000000000000000000000000000000000006001600160a01b031663da5139ca8b8560016040518463ffffffff1660e01b8152600401610a2c93929190612772565b60206040518083038186803b158015610a4457600080fd5b505afa158015610a58573d6000803e3d6000fd5b505050506040513d601f19601f82011682018060405250810190610a7c9190612474565b8290611a3a565b6001600160a01b038a1660009081526007602052604090205550610aa5611e6d565b604051634ffe34db60e01b81526001600160a01b037f00000000000000000000000000000000000000000000000000000000000000001690634ffe34db90610af1908c9060040161250b565b604080518083038186803b158015610b0857600080fd5b505afa158015610b1c573d6000803e3d6000fd5b505050506040513d601f19601f82011682018060405250810190610b409190612434565b905060005b8b51811015610836577f00000000000000000000000000000000000000000000000000000000000000006001600160a01b031663f18d03cc8b308f8581518110610b8b57fe5b602002602001015160600151610bc08b8781518110610ba657fe5b6020026020010151600089611a9a9092919063ffffffff16565b6040518563ffffffff1660e01b8152600401610bdf94939291906126ef565b600060405180830381600087803b158015610bf957600080fd5b505af1158015610c0d573d6000803e3d6000fd5b505060019092019150610b459050565b6000546001600160a01b031681565b600080610c3b88888888611464565b92509250506000620f4240610c5b60025485611a6390919063ffffffff16565b81610c6257fe5b0490506000610c778989898989888a89611835565b9050610ccd7f00000000000000000000000000000000000000000000000000000000000000006001600160a01b031663da5139ca8a8560016040518463ffffffff1660e01b8152600401610a2c93929190612772565b6001600160a01b03808a166000908152600760205260408082209390935560608d01519251636d289ce560e11b81527f00000000000000000000000000000000000000000000000000000000000000009092169263f18d03cc928c92309291869163da5139ca91610d459187918e9190600401612772565b60206040518083038186803b158015610d5d57600080fd5b505afa158015610d71573d6000803e3d6000fd5b505050506040513d601f19601f82011682018060405250810190610d959190612474565b6040518563ffffffff1660e01b8152600401610db494939291906126ef565b600060405180830381600087803b158015610dce57600080fd5b505af1158015610de2573d6000803e3d6000fd5b5050505050505050505050505050565b6001600160a01b03831660009081526004602052604090205460ff16610e2a5760405162461bcd60e51b8152600401610419906127fb565b606086516001600160401b0381118015610e4357600080fd5b50604051908082528060200260200182016040528015610e6d578160200160208202803683370190505b50905060008060005b8951811015610ed5576000610e908b838151811061093257fe5b909150868481518110610e9f57fe5b60209081029190910101919091529050610eb98482611a3a565b9350610eca85838151811061097c57fe5b925050600101610e76565b50610ee7888888888887876000611835565b50610ef0611e6d565b604051634ffe34db60e01b81526001600160a01b037f00000000000000000000000000000000000000000000000000000000000000001690634ffe34db90610f3c908b9060040161250b565b604080518083038186803b158015610f5357600080fd5b505afa158015610f67573d6000803e3d6000fd5b505050506040513d601f19601f82011682018060405250810190610f8b9190612434565b905060005b8a5181101561104e577f00000000000000000000000000000000000000000000000000000000000000006001600160a01b031663f18d03cc8a308e8581518110610fd657fe5b602002602001015160600151610ff18a8781518110610ba657fe5b6040518563ffffffff1660e01b815260040161101094939291906126ef565b600060405180830381600087803b15801561102a57600080fd5b505af115801561103e573d6000803e3d6000fd5b505060019092019150610f909050565b5050505050505050505050565b620f424081565b6001600160a01b038082166000908152600760205260408082206001908190559051633de222bb60e21b81529192611125927f00000000000000000000000000000000000000000000000000000000000000009091169063f7888aec906110cf90879030906004016126d5565b60206040518083038186803b1580156110e757600080fd5b505afa1580156110fb573d6000803e3d6000fd5b505050506040513d601f19601f8201168201806040525081019061111f9190612474565b90611b37565b600354604051633c6340f360e21b81529192506001600160a01b037f000000000000000000000000000000000000000000000000000000000000000081169263f18d03cc9261118092879230929091169087906004016126ef565b600060405180830381600087803b15801561119a57600080fd5b505af11580156111ae573d6000803e3d6000fd5b50506003546040516001600160a01b03918216935090851691507fdaecda5f887a0a2c43d6cbadb101432f7718e52c7eb083590cc8a133c54fa2cd906111f5908590612a14565b60405180910390a35050565b6040516370a0823160e01b81526000906001600160a01b038316906370a082319061123090309060040161250b565b60206040518083038186803b15801561124857600080fd5b505afa15801561125c573d6000803e3d6000fd5b505050506040513d601f19601f820116820180604052508101906112809190612474565b60035490915061129d906001600160a01b03848116911683611b5a565b5050565b7f000000000000000000000000000000000000000000000000000000000000000081565b606080836001600160401b03811180156112de57600080fd5b50604051908082528060200260200182016040528015611308578160200160208202803683370190505b509150836001600160401b038111801561132157600080fd5b5060405190808252806020026020018201604052801561135557816020015b60608152602001906001900390816113405790505b50905060005b8481101561144c57600060603088888581811061137457fe5b90506020028101906113869190612a1d565b6040516113949291906124b8565b600060405180830381855af49150503d80600081146113cf576040519150601f19603f3d011682016040523d82523d6000602084013e6113d4565b606091505b509150915081806113e3575085155b6113ec82611c50565b9061140a5760405162461bcd60e51b815260040161041991906126c2565b508185848151811061141857fe5b6020026020010190151590811515815250508084848151811061143757fe5b6020908102919091010152505060010161135b565b50935093915050565b6001546001600160a01b031681565b6000806000806001600160a01b03168760e001516001600160a01b031614611542576000808860e001516001600160a01b031663d6d7d5258a61010001516040518263ffffffff1660e01b81526004016114be91906126c2565b6040805180830381600087803b1580156114d757600080fd5b505af11580156114eb573d6000803e3d6000fd5b505050506040513d601f19601f8201168201806040525081019061150f919061223c565b9150915081801561152357508860c0015181115b61153f5760405162461bcd60e51b815260040161041990612898565b50505b61154d878787611cb8565b87516001600160a01b0316600090815260056020908152604080832084845290915290205490935060ff16156115955760405162461bcd60e51b815260040161041990612983565b428760800151111580156115ad57508660a001514211155b6115c95760405162461bcd60e51b815260040161041990612927565b86600001516001600160a01b03166001848961014001518a61016001518b61018001516040516000815260200160405260405161160994939291906126a4565b6020604051602081039080840390855afa15801561162b573d6000803e3d6000fd5b505050602060405103516001600160a01b03161461165b5760405162461bcd60e51b8152600401610419906128fd565b60008381526006602052604081205461012089015161167b908290611a3a565b9150886020015182111561169d5760208901516116989082611b37565b6116a4565b8861012001515b92505087602001516116c3838a60400151611a6390919063ffffffff16565b816116ca57fe5b600086815260066020526040908190208490558a519051636d289ce560e11b81529290910494506001600160a01b037f0000000000000000000000000000000000000000000000000000000000000000169163f18d03cc918a918990859063da5139ca906117419086908b90600190600401612772565b60206040518083038186803b15801561175957600080fd5b505afa15801561176d573d6000803e3d6000fd5b505050506040513d601f19601f820116820180604052508101906117919190612474565b6040518563ffffffff1660e01b81526004016117b094939291906126ef565b600060405180830381600087803b1580156117ca57600080fd5b505af11580156117de573d6000803e3d6000fd5b505050508388600001516001600160a01b03167fce4da805eb1aedf1d7227f63c9dd3bda595b984e219a75c74a73bf8f568d031e8785604051611822929190612560565b60405180910390a3509450945094915050565b60006001600160a01b03871663ff64450f8a8a876118538888611a3a565b8b8b6040518763ffffffff1660e01b815260040161187696959493929190612719565b600060405180830381600087803b15801561189057600080fd5b505af11580156118a4573d6000803e3d6000fd5b5050506001600160a01b03808a166000908152600760205260409020549250611972915082907f00000000000000000000000000000000000000000000000000000000000000001663da5139ca8b6118fc8888611a3a565b60016040518463ffffffff1660e01b815260040161191c93929190612772565b60206040518083038186803b15801561193457600080fd5b505afa158015611948573d6000803e3d6000fd5b505050506040513d601f19601f8201168201806040525081019061196c9190612474565b90611a3a565b604051633de222bb60e21b81526001600160a01b037f0000000000000000000000000000000000000000000000000000000000000000169063f7888aec906119c0908c9030906004016126d5565b60206040518083038186803b1580156119d857600080fd5b505afa1580156119ec573d6000803e3d6000fd5b505050506040513d601f19601f82011682018060405250810190611a109190612474565b1015611a2e5760405162461bcd60e51b8152600401610419906129b2565b98975050505050505050565b81810181811015611a5d5760405162461bcd60e51b815260040161041990612861565b92915050565b6000811580611a7e57505080820282828281611a7b57fe5b04145b611a5d5760405162461bcd60e51b8152600401610419906129dd565b82516000906001600160801b0316611ab3575081611b30565b835160208501516001600160801b0391821691611ad291869116611a63565b81611ad957fe5b049050818015611b1d57508284602001516001600160801b0316611b1386600001516001600160801b031684611a6390919063ffffffff16565b81611b1a57fe5b04105b15611b3057611b2d816001611a3a565b90505b9392505050565b80820382811115611a5d5760405162461bcd60e51b815260040161041990612795565b60006060846001600160a01b031663a9059cbb60e01b8585604051602401611b83929190612560565b60408051601f198184030181529181526020820180516001600160e01b03166001600160e01b0319909416939093179092529051611bc191906124c8565b6000604051808303816000865af19150503d8060008114611bfe576040519150601f19603f3d011682016040523d82523d6000602084013e611c03565b606091505b5091509150818015611c2d575080511580611c2d575080806020019051810190611c2d9190612220565b611c495760405162461bcd60e51b8152600401610419906127c4565b5050505050565b6060604482511015611c96575060408051808201909152601d81527f5472616e73616374696f6e2072657665727465642073696c656e746c790000006020820152611cb3565b60048201915081806020019051810190611cb0919061231e565b90505b919050565b6000807fd9fd14296064c59daecd3555268c2f34d84abb8ee0528b945aaa1973c4eba60685600001518585886020015189604001518a606001518b608001518c60a001518d60c001518e60e001518f610100015180519060200120604051602001611d2e9c9b9a9998979695949392919061261e565b60408051601f1981840301815282825280516020918201208383019092526002835261190160f01b908301529150611d64611d97565b82604051602001611d77939291906124e4565b604051602081830303815290604052805190602001209150509392505050565b6000467f00000000000000000000000000000000000000000000000000000000000000008114611dcf57611dca81611df7565b611df1565b7f00000000000000000000000000000000000000000000000000000000000000005b91505090565b60007f8cad95687ba82c2ce50e74f7b754645e5117c3a5bec8151c0726d5857980a8667f60f7369f0450eeece08b3b96921dc6c416599bab90758942976243b3b025f3908330604051602001611e509493929190612680565b604051602081830303815290604052805190602001209050919050565b604080518082019091526000808252602082015290565b8035611a5d81612ada565b60008083601f840112611ea0578182fd5b5081356001600160401b03811115611eb6578182fd5b602083019150836020828501011115611ece57600080fd5b9250929050565b600082601f830112611ee5578081fd5b8135611ef8611ef382612a87565b612a61565b9150808252836020828501011115611f0f57600080fd5b8060208401602084013760009082016020015292915050565b60006101a0808385031215611f3b578182fd5b611f4481612a61565b915050611f518383611e84565b81526020820135602082015260408201356040820152611f748360608401611e84565b60608201526080820135608082015260a082013560a082015260c082013560c0820152611fa48360e08401611e84565b60e0820152610100808301356001600160401b03811115611fc457600080fd5b611fd085828601611ed5565b828401525050610120808301358183015250610140611ff18482850161202a565b9082015261016082810135908201526101809182013591810191909152919050565b80516001600160801b0381168114611a5d57600080fd5b803560ff81168114611a5d57600080fd5b60008060006060848603121561204f578283fd5b833561205a81612ada565b9250602084013561206a81612af2565b9150604084013561207a81612af2565b809150509250925092565b60008060408385031215612097578182fd5b82356120a281612ada565b946020939093013593505050565b6000806000604084860312156120c4578283fd5b83356001600160401b03808211156120da578485fd5b818601915086601f8301126120ed578485fd5b8135818111156120fb578586fd5b876020808302850101111561210e578586fd5b6020928301955093505084013561207a81612af2565b60008060008060008060a0878903121561213c578182fd5b6001600160401b038088351115612151578283fd5b8735880189601f820112612163578384fd5b803582811115612171578485fd5b61217f602080830201612a61565b818152602080820191908401875b848110156121ba576121a58f60208435890101611f28565b8452602093840193919091019060010161218d565b5050809a50505050506121d08960208a01611e84565b95506121df8960408a01611e84565b94506121ee8960608a01611e84565b9350608088013581811115612201578384fd5b61220d8a828b01611e8f565b989b979a50959850939694959350505050565b600060208284031215612231578081fd5b8151611b3081612af2565b6000806040838503121561224e578182fd5b825161225981612af2565b6020939093015192949293505050565b60006020828403121561227a578081fd5b5035919050565b600060208284031215612292578081fd5b8135611b3081612ada565b600080600080600080600080610100898b0312156122b9578586fd5b88356122c481612ada565b975060208901356122d481612ada565b965060408901356122e481612ada565b955060608901359450608089013593506123018a60a08b0161202a565b925060c0890135915060e089013590509295985092959890939650565b60006020828403121561232f578081fd5b81516001600160401b03811115612344578182fd5b8201601f81018413612354578182fd5b8051612362611ef382612a87565b818152856020838501011115612376578384fd5b612387826020830160208601612aaa565b95945050505050565b60008060008060008060a087890312156123a8578384fd5b86356001600160401b03808211156123be578586fd5b6123ca8a838b01611f28565b9750602089013591506123dc82612ada565b9095506040880135906123ee82612ada565b90945060608801359061240082612ada565b90935060808801359080821115612415578384fd5b5061242289828a01611e8f565b979a9699509497509295939492505050565b600060408284031215612445578081fd5b61244f6040612a61565b6124598484612013565b81526124688460208501612013565b60208201529392505050565b600060208284031215612485578081fd5b5051919050565b600081518084526124a4816020860160208601612aaa565b601f01601f19169290920160200192915050565b6000828483379101908152919050565b600082516124da818460208701612aaa565b9190910192915050565b600084516124f6818460208901612aaa565b91909101928352506020820152604001919050565b6001600160a01b0391909116815260200190565b6001600160a01b0397881681529590961660208601526040850193909352606084019190915260ff16608083015260a082015260c081019190915260e00190565b6001600160a01b03929092168252602082015260400190565b604080825283519082018190526000906020906060840190828701845b828110156125b4578151151584529284019290840190600101612596565b505050838103828501528085516125cb8184612a14565b91508192508381028201848801865b838110156126045785830385526125f283835161248c565b948701949250908601906001016125da565b50909998505050505050505050565b901515815260200190565b9b8c526001600160a01b039a8b1660208d0152988a1660408c015296891660608b015260808a019590955260a089019390935290861660c088015260e08701526101008601526101208501529091166101408301526101608201526101800190565b938452602084019290925260408301526001600160a01b0316606082015260800190565b93845260ff9290921660208401526040830152606082015260800190565b600060208252611b30602083018461248c565b6001600160a01b0392831681529116602082015260400190565b6001600160a01b039485168152928416602084015292166040820152606081019190915260800190565b6001600160a01b03878116825286166020820152604081018590526060810184905260a06080820181905281018290526000828460c084013781830160c090810191909152601f909201601f1916010195945050505050565b6001600160a01b0393909316835260208301919091521515604082015260600190565b602080825260159082015274426f72696e674d6174683a20556e646572666c6f7760581b604082015260600190565b6020808252601c908201527f426f72696e6745524332303a205472616e73666572206661696c656400000000604082015260600190565b6020808252601b908201527f4c696d69744f726465723a206e6f742077686974656c69737465640000000000604082015260600190565b6020808252601590820152744f776e61626c653a207a65726f206164647265737360581b604082015260600190565b60208082526018908201527f426f72696e674d6174683a20416464204f766572666c6f770000000000000000604082015260600190565b60208082526016908201527514dd1bdc081c1c9a58d9481b9bdd081c995858da195960521b604082015260600190565b6020808252818101527f4f776e61626c653a2063616c6c6572206973206e6f7420746865206f776e6572604082015260600190565b60208082526010908201526f2634b6b4ba1d103737ba1036b0b5b2b960811b604082015260600190565b6020808252600d908201526c1bdc99195c8b595e1c1a5c9959609a1b604082015260600190565b6020808252818101527f4f776e61626c653a2063616c6c657220213d2070656e64696e67206f776e6572604082015260600190565b602080825260159082015274131a5b5a5d13dc99195c8e8810d85b98d95b1b1959605a1b604082015260600190565b602080825260119082015270098d2dad2e87440dcdee840cadcdeeaced607b1b604082015260600190565b60208082526018908201527f426f72696e674d6174683a204d756c204f766572666c6f770000000000000000604082015260600190565b90815260200190565b6000808335601e19843603018112612a33578283fd5b8301803591506001600160401b03821115612a4c578283fd5b602001915036819003821315611ece57600080fd5b6040518181016001600160401b0381118282101715612a7f57600080fd5b604052919050565b60006001600160401b03821115612a9c578081fd5b50601f01601f191660200190565b60005b83811015612ac5578181015183820152602001612aad565b83811115612ad4576000848401525b50505050565b6001600160a01b0381168114612aef57600080fd5b50565b8015158114612aef57600080fdfea2646970667358221220fc242d375363cee0cc6376e0f2c4f263e59518a988fc8f0b4fa754ebea578e7164736f6c634300060c0033",
  "devdoc": {
    "kind": "dev",
    "methods": {
      "batch(bytes[],bool)": {
        "params": {
          "calls": "An array of inputs for each call.",
          "revertOnFail": "If True then reverts after a failed call and stops doing further calls."
        },
        "returns": {
          "results": "An array with the returned data of each function call, mapped one-to-one to `calls`.",
          "successes": "An array indicating the success of a call, mapped one-to-one to `calls`."
        }
      },
      "transferOwnership(address,bool,bool)": {
        "params": {
          "direct": "True if `newOwner` should be set immediately. False if `newOwner` needs to use `claimOwnership`.",
          "newOwner": "Address of the new owner.",
          "renounce": "Allows the `newOwner` to be `address(0)` if `direct` and `renounce` is True. Has no effect otherwise."
        }
      }
    },
    "version": 1
  },
  "userdoc": {
    "kind": "user",
    "methods": {
      "batch(bytes[],bool)": {
        "notice": "Allows batched call to self (this contract)."
      },
      "claimOwnership()": {
        "notice": "Needs to be called by `pendingOwner` to claim ownership."
      },
      "permitToken(address,address,address,uint256,uint256,uint8,bytes32,bytes32)": {
        "notice": "Call wrapper that performs `ERC20.permit` on `token`. Lookup `IERC20.permit`."
      },
      "transferOwnership(address,bool,bool)": {
        "notice": "Transfers ownership to `newOwner`. Either directly or claimable by the new pending owner. Can only be invoked by the current `owner`."
      }
    },
    "version": 1
  },
  "storageLayout": {
    "storage": [
      {
        "astId": 152,
        "contract": "contracts/StopLimitOrder.sol:StopLimitOrder",
        "label": "owner",
        "offset": 0,
        "slot": "0",
        "type": "t_address"
      },
      {
        "astId": 154,
        "contract": "contracts/StopLimitOrder.sol:StopLimitOrder",
        "label": "pendingOwner",
        "offset": 0,
        "slot": "1",
        "type": "t_address"
      },
      {
        "astId": 4381,
        "contract": "contracts/StopLimitOrder.sol:StopLimitOrder",
        "label": "externalOrderFee",
        "offset": 0,
        "slot": "2",
        "type": "t_uint256"
      },
      {
        "astId": 4383,
        "contract": "contracts/StopLimitOrder.sol:StopLimitOrder",
        "label": "feeTo",
        "offset": 0,
        "slot": "3",
        "type": "t_address"
      },
      {
        "astId": 4387,
        "contract": "contracts/StopLimitOrder.sol:StopLimitOrder",
        "label": "isWhiteListed",
        "offset": 0,
        "slot": "4",
        "type": "t_mapping(t_contract(ILimitOrderReceiver)6181,t_bool)"
      },
      {
        "astId": 4393,
        "contract": "contracts/StopLimitOrder.sol:StopLimitOrder",
        "label": "cancelledOrder",
        "offset": 0,
        "slot": "5",
        "type": "t_mapping(t_address,t_mapping(t_bytes32,t_bool))"
      },
      {
        "astId": 4397,
        "contract": "contracts/StopLimitOrder.sol:StopLimitOrder",
        "label": "orderStatus",
        "offset": 0,
        "slot": "6",
        "type": "t_mapping(t_bytes32,t_uint256)"
      },
      {
        "astId": 4401,
        "contract": "contracts/StopLimitOrder.sol:StopLimitOrder",
        "label": "feesCollected",
        "offset": 0,
        "slot": "7",
        "type": "t_mapping(t_contract(IERC20)345,t_uint256)"
      }
    ],
    "types": {
      "t_address": {
        "encoding": "inplace",
        "label": "address",
        "numberOfBytes": "20"
      },
      "t_bool": {
        "encoding": "inplace",
        "label": "bool",
        "numberOfBytes": "1"
      },
      "t_bytes32": {
        "encoding": "inplace",
        "label": "bytes32",
        "numberOfBytes": "32"
      },
      "t_contract(IERC20)345": {
        "encoding": "inplace",
        "label": "contract IERC20",
        "numberOfBytes": "20"
      },
      "t_contract(ILimitOrderReceiver)6181": {
        "encoding": "inplace",
        "label": "contract ILimitOrderReceiver",
        "numberOfBytes": "20"
      },
      "t_mapping(t_address,t_mapping(t_bytes32,t_bool))": {
        "encoding": "mapping",
        "key": "t_address",
        "label": "mapping(address => mapping(bytes32 => bool))",
        "numberOfBytes": "32",
        "value": "t_mapping(t_bytes32,t_bool)"
      },
      "t_mapping(t_bytes32,t_bool)": {
        "encoding": "mapping",
        "key": "t_bytes32",
        "label": "mapping(bytes32 => bool)",
        "numberOfBytes": "32",
        "value": "t_bool"
      },
      "t_mapping(t_bytes32,t_uint256)": {
        "encoding": "mapping",
        "key": "t_bytes32",
        "label": "mapping(bytes32 => uint256)",
        "numberOfBytes": "32",
        "value": "t_uint256"
      },
      "t_mapping(t_contract(IERC20)345,t_uint256)": {
        "encoding": "mapping",
        "key": "t_contract(IERC20)345",
        "label": "mapping(contract IERC20 => uint256)",
        "numberOfBytes": "32",
        "value": "t_uint256"
      },
      "t_mapping(t_contract(ILimitOrderReceiver)6181,t_bool)": {
        "encoding": "mapping",
        "key": "t_contract(ILimitOrderReceiver)6181",
        "label": "mapping(contract ILimitOrderReceiver => bool)",
        "numberOfBytes": "32",
        "value": "t_bool"
      },
      "t_uint256": {
        "encoding": "inplace",
        "label": "uint256",
        "numberOfBytes": "32"
      }
    }
  }
}