{
  "address": "0x52EB5C7AC83C65aF6277A589C223FEE47C274CF7",
  "abi": [
    {
      "inputs": [
        {
          "internalType": "address",
          "name": "_factory",
          "type": "address"
        },
        {
          "internalType": "contract IBentoBoxV1",
          "name": "_bentoBox",
          "type": "address"
        },
        {
          "internalType": "bytes32",
          "name": "_pairCodeHash",
          "type": "bytes32"
        }
      ],
      "stateMutability": "nonpayable",
      "type": "constructor"
    },
    {
      "inputs": [],
      "name": "bentoBox",
      "outputs": [
        {
          "internalType": "contract IBentoBoxV1",
          "name": "",
          "type": "address"
        }
      ],
      "stateMutability": "view",
      "type": "function"
    },
    {
      "inputs": [],
      "name": "factory",
      "outputs": [
        {
          "internalType": "address",
          "name": "",
          "type": "address"
        }
      ],
      "stateMutability": "view",
      "type": "function"
    },
    {
      "inputs": [
        {
          "internalType": "address",
          "name": "t0",
          "type": "address"
        },
        {
          "internalType": "address",
          "name": "t1",
          "type": "address"
        }
      ],
      "name": "getPair",
      "outputs": [
        {
          "internalType": "address",
          "name": "",
          "type": "address"
        }
      ],
      "stateMutability": "view",
      "type": "function"
    },
    {
      "inputs": [
        {
          "internalType": "contract IERC20",
          "name": "tokenIn",
          "type": "address"
        },
        {
          "internalType": "contract IERC20",
          "name": "tokenOut",
          "type": "address"
        },
        {
          "internalType": "uint256",
          "name": "amountIn",
          "type": "uint256"
        },
        {
          "internalType": "uint256",
          "name": "amountMinOut",
          "type": "uint256"
        },
        {
          "internalType": "bytes",
          "name": "data",
          "type": "bytes"
        }
      ],
      "name": "onLimitOrder",
      "outputs": [],
      "stateMutability": "nonpayable",
      "type": "function"
    },
    {
      "inputs": [],
      "name": "pairCodeHash",
      "outputs": [
        {
          "internalType": "bytes32",
          "name": "",
          "type": "bytes32"
        }
      ],
      "stateMutability": "view",
      "type": "function"
    }
  ],
  "transactionHash": "0x70a9e98c20bcab26d57103e47158ef18886e4dc9a03f784788e8ac921e080b4a",
  "args": [
    "0xc35DADB65012eC5796536bD9864eD8773aBc74C4",
    "0x0319000133d3AdA02600f0875d2cf03D442C3367",
    "0xe18a34eb0e04b04f7a0ac29a6e80748dca96319b42c54d679cb821dca90c6303"
  ],
  "solcInputHash": "ee87afb51c60f04f42c4377a365454d3",
  "bytecode": "0x60e060405234801561001057600080fd5b506040516113e93803806113e983398101604081905261002f91610052565b6001600160601b0319606093841b81166080529190921b1660a05260c0526100ac565b600080600060608486031215610066578283fd5b835161007181610094565b602085015190935061008281610094565b80925050604084015190509250925092565b6001600160a01b03811681146100a957600080fd5b50565b60805160601c60a05160601c60c0516112c26101276000398060e5528061015552806104bf528061057b528061099c52508060c15280610199528061024c528061027452806102a4528061033c528061036c5250806101095280610132528061049c52806105305280610943528061097952506112c26000f3fe608060405234801561001057600080fd5b50600436106100575760003560e01c80636b2ace871461005c5780639aab92481461007a578063c45a01551461008f578063e6a4390514610097578063ff64450f146100aa575b600080fd5b6100646100bf565b6040516100719190610ef3565b60405180910390f35b6100826100e3565b6040516100719190610f20565b610064610107565b6100646100a5366004610c42565b61012b565b6100bd6100b8366004610d5c565b610182565b005b7f000000000000000000000000000000000000000000000000000000000000000081565b7f000000000000000000000000000000000000000000000000000000000000000081565b7f000000000000000000000000000000000000000000000000000000000000000081565b60006101797f000000000000000000000000000000000000000000000000000000000000000084847f0000000000000000000000000000000000000000000000000000000000000000610420565b90505b92915050565b60405163097da6d360e41b81526001600160a01b037f000000000000000000000000000000000000000000000000000000000000000016906397da6d30906101d7908990309081908a90600090600401610f29565b6040805180830381600087803b1580156101f057600080fd5b505af1158015610204573d6000803e3d6000fd5b505050506040513d601f19601f820116820180604052508101906102289190610e55565b506060905060008061023c84860186610c7a565b92509250925060006102708884867f0000000000000000000000000000000000000000000000000000000000000000610493565b90507f00000000000000000000000000000000000000000000000000000000000000006001600160a01b03166302b9446c8a7f0000000000000000000000000000000000000000000000000000000000000000338b60006040518663ffffffff1660e01b81526004016102e7959493929190610f29565b6040805180830381600087803b15801561030057600080fd5b505af1158015610314573d6000803e3d6000fd5b505050506040513d601f19601f820116820180604052508101906103389190610e55565b50507f00000000000000000000000000000000000000000000000000000000000000006001600160a01b03166302b9446c8a7f00000000000000000000000000000000000000000000000000000000000000008561039f8c876105e190919063ffffffff16565b60006040518663ffffffff1660e01b81526004016103c1959493929190610f29565b6040805180830381600087803b1580156103da57600080fd5b505af11580156103ee573d6000803e3d6000fd5b505050506040513d601f19601f820116820180604052508101906104129190610e55565b505050505050505050505050565b600080600061042f8686610604565b91509150868282604051602001610447929190610e78565b604051602081830303815290604052805190602001208560405160200161047093929190610ebb565b60408051601f198184030181529190528051602090910120979650505050505050565b600060606104e37f000000000000000000000000000000000000000000000000000000000000000087867f000000000000000000000000000000000000000000000000000000000000000061068e565b9050806001825103815181106104f557fe5b60200260200101519150848210156105285760405162461bcd60e51b815260040161051f90611165565b60405180910390fd5b6105cd61059f7f00000000000000000000000000000000000000000000000000000000000000008660008151811061055c57fe5b60200260200101518760018151811061057157fe5b60200260200101517f0000000000000000000000000000000000000000000000000000000000000000610420565b87866000815181106105ad57fe5b60200260200101516001600160a01b031661079e9092919063ffffffff16565b6105d8818585610894565b50949350505050565b8082038281111561017c5760405162461bcd60e51b815260040161051f90610f5d565b600080826001600160a01b0316846001600160a01b031614156106395760405162461bcd60e51b815260040161051f9061101f565b826001600160a01b0316846001600160a01b03161061065957828461065c565b83835b90925090506001600160a01b0382166106875760405162461bcd60e51b815260040161051f906110e3565b9250929050565b60606002835110156106b25760405162461bcd60e51b815260040161051f90611064565b825167ffffffffffffffff811180156106ca57600080fd5b506040519080825280602002602001820160405280156106f4578160200160208202803683370190505b509050838160008151811061070557fe5b60200260200101818152505060005b60018451038110156105d8576000806107588887858151811061073357fe5b602002602001015188866001018151811061074a57fe5b602002602001015188610a68565b9150915061077a84848151811061076b57fe5b60200260200101518383610b43565b84846001018151811061078957fe5b60209081029190910101525050600101610714565b60006060846001600160a01b031663a9059cbb60e01b85856040516024016107c7929190610f07565b60408051601f198184030181529181526020820180516001600160e01b03166001600160e01b03199094169390931790925290516108059190610e9f565b6000604051808303816000865af19150503d8060008114610842576040519150601f19603f3d011682016040523d82523d6000602084013e610847565b606091505b50915091508180156108715750805115806108715750808060200190518101906108719190610d35565b61088d5760405162461bcd60e51b815260040161051f90610f8c565b5050505050565b60005b6001835103811015610a62576000808483815181106108b257fe5b60200260200101518584600101815181106108c957fe5b60200260200101519150915060006108e18383610604565b50905060008785600101815181106108f557fe5b60200260200101519050600080836001600160a01b0316866001600160a01b03161461092357826000610927565b6000835b91509150600060028a5103881061093e5788610972565b6109727f0000000000000000000000000000000000000000000000000000000000000000878c8b6002018151811061057157fe5b90506109c07f000000000000000000000000000000000000000000000000000000000000000088887f0000000000000000000000000000000000000000000000000000000000000000610420565b6001600160a01b031663022c0d9f84848460006040519080825280601f01601f1916602001820160405280156109fd576020820181803683370190505b506040518563ffffffff1660e01b8152600401610a1d949392919061119c565b600060405180830381600087803b158015610a3757600080fd5b505af1158015610a4b573d6000803e3d6000fd5b505060019099019850610897975050505050505050565b50505050565b6000806000610a778686610604565b509050600080610a8989898989610420565b6001600160a01b0316630902f1ac6040518163ffffffff1660e01b815260040160606040518083038186803b158015610ac157600080fd5b505afa158015610ad5573d6000803e3d6000fd5b505050506040513d601f19601f82011682018060405250810190610af99190610e01565b506001600160701b031691506001600160701b03169150826001600160a01b0316886001600160a01b031614610b30578082610b33565b81815b909a909950975050505050505050565b6000808411610b645760405162461bcd60e51b815260040161051f9061111a565b600083118015610b745750600082115b610b905760405162461bcd60e51b815260040161051f9061109b565b6000610b9e856103e5610bdd565b90506000610bac8285610bdd565b90506000610bc683610bc0886103e8610bdd565b90610c14565b9050808281610bd157fe5b04979650505050505050565b6000811580610bf857505080820282828281610bf557fe5b04145b61017c5760405162461bcd60e51b815260040161051f90610fc3565b8082018281101561017c5760405162461bcd60e51b815260040161051f90610ff1565b803561017c8161125f565b60008060408385031215610c54578182fd5b8235610c5f8161125f565b91506020830135610c6f8161125f565b809150509250929050565b600080600060608486031215610c8e578081fd5b833567ffffffffffffffff811115610ca4578182fd5b8401601f81018613610cb4578182fd5b8035610cc7610cc282611213565b6111ec565b80828252602080830192508085018a828387028801011115610ce7578687fd5b8695505b84861015610d1157610cfd8b82610c37565b845260019590950194928101928101610ceb565b509096508701359450610d2c92508791505060408601610c37565b90509250925092565b600060208284031215610d46578081fd5b81518015158114610d55578182fd5b9392505050565b60008060008060008060a08789031215610d74578182fd5b8635610d7f8161125f565b95506020870135610d8f8161125f565b94506040870135935060608701359250608087013567ffffffffffffffff80821115610db9578384fd5b818901915089601f830112610dcc578384fd5b813581811115610dda578485fd5b8a6020828501011115610deb578485fd5b6020830194508093505050509295509295509295565b600080600060608486031215610e15578283fd5b8351610e2081611277565b6020850151909350610e3181611277565b604085015190925063ffffffff81168114610e4a578182fd5b809150509250925092565b60008060408385031215610e67578182fd5b505080516020909101519092909150565b6bffffffffffffffffffffffff19606093841b811682529190921b16601482015260280190565b60008251610eb1818460208701611233565b9190910192915050565b6001600160f81b0319815260609390931b6bffffffffffffffffffffffff191660018401526015830191909152603582015260550190565b6001600160a01b0391909116815260200190565b6001600160a01b03929092168252602082015260400190565b90815260200190565b6001600160a01b03958616815293851660208501529190931660408301526060820192909252608081019190915260a00190565b602080825260159082015274426f72696e674d6174683a20556e646572666c6f7760581b604082015260600190565b6020808252601c908201527f426f72696e6745524332303a205472616e73666572206661696c656400000000604082015260600190565b60208082526014908201527364732d6d6174682d6d756c2d6f766572666c6f7760601b604082015260600190565b60208082526014908201527364732d6d6174682d6164642d6f766572666c6f7760601b604082015260600190565b60208082526025908201527f556e697377617056324c6962726172793a204944454e544943414c5f41444452604082015264455353455360d81b606082015260800190565b6020808252601e908201527f556e697377617056324c6962726172793a20494e56414c49445f504154480000604082015260600190565b60208082526028908201527f556e697377617056324c6962726172793a20494e53554646494349454e545f4c604082015267495155494449545960c01b606082015260800190565b6020808252601e908201527f556e697377617056324c6962726172793a205a45524f5f414444524553530000604082015260600190565b6020808252602b908201527f556e697377617056324c6962726172793a20494e53554646494349454e545f4960408201526a1394155517d05353d5539560aa1b606082015260800190565b60208082526017908201527f696e73756666696369656e742d616d6f756e742d6f7574000000000000000000604082015260600190565b600085825284602083015260018060a01b03841660408301526080606083015282518060808401526111d58160a0850160208701611233565b601f01601f19169190910160a00195945050505050565b60405181810167ffffffffffffffff8111828210171561120b57600080fd5b604052919050565b600067ffffffffffffffff821115611229578081fd5b5060209081020190565b60005b8381101561124e578181015183820152602001611236565b83811115610a625750506000910152565b6001600160a01b038116811461127457600080fd5b50565b6001600160701b038116811461127457600080fdfea26469706673582212208a8c1ddd41c0c367bcf607b8a14e183af6f7ecf1f2c6a1f5f60b2c459b2cc24a64736f6c634300060c0033",
  "devdoc": {
    "kind": "dev",
    "methods": {},
    "version": 1
  },
  "userdoc": {
    "kind": "user",
    "methods": {},
    "version": 1
  },
  "storageLayout": {
    "storage": [],
    "types": null
  }
}