{
  "address": "0x7616Ef283308f7F95723c4360D3e629967a9F8d2",
  "abi": [
    {
      "inputs": [
        {
          "internalType": "address",
          "name": "_factory",
          "type": "address"
        },
        {
          "internalType": "contract IBentoBoxV1",
          "name": "_bentoBox",
          "type": "address"
        },
        {
          "internalType": "bytes32",
          "name": "_pairCodeHash",
          "type": "bytes32"
        }
      ],
      "stateMutability": "nonpayable",
      "type": "constructor"
    },
    {
      "inputs": [
        {
          "internalType": "contract IERC20",
          "name": "tokenIn",
          "type": "address"
        },
        {
          "internalType": "contract IERC20",
          "name": "tokenOut",
          "type": "address"
        },
        {
          "internalType": "uint256",
          "name": "amountIn",
          "type": "uint256"
        },
        {
          "internalType": "uint256",
          "name": "amountMinOut",
          "type": "uint256"
        },
        {
          "internalType": "bytes",
          "name": "data",
          "type": "bytes"
        }
      ],
      "name": "onLimitOrder",
      "outputs": [],
      "stateMutability": "nonpayable",
      "type": "function"
    }
  ],
  "transactionHash": "0x7ebdb8e4063ab52f7203262f5a0f7612412bc8d2c786b5f32844456211cbce99",
  "args": [
    "0xc35DADB65012eC5796536bD9864eD8773aBc74C4",
    "0x0319000133d3AdA02600f0875d2cf03D442C3367",
    "0xe18a34eb0e04b04f7a0ac29a6e80748dca96319b42c54d679cb821dca90c6303"
  ],
  "solcInputHash": "19fe208d795d0d5700bff02a0f9af861",
  "bytecode": "0x60e060405234801561001057600080fd5b5060405161124538038061124583398101604081905261002f91610052565b6001600160601b0319606093841b81166080529190921b1660a05260c0526100ac565b600080600060608486031215610066578283fd5b835161007181610094565b602085015190935061008281610094565b80925050604084015190509250925092565b6001600160a01b03811681146100a957600080fd5b50565b60805160601c60a05160601c60c05161113661010f6000398061030f52806103cb52806107db525080605c528061010f5280610137528061016752806101ff528061022f5250806102ec5280610380528061078252806107b852506111366000f3fe608060405234801561001057600080fd5b506004361061002b5760003560e01c8063ff64450f14610030575b600080fd5b61004361003e366004610bed565b610045565b005b60405163097da6d360e41b81526001600160a01b037f000000000000000000000000000000000000000000000000000000000000000016906397da6d309061009a908990309081908a90600090600401610d9d565b6040805180830381600087803b1580156100b357600080fd5b505af11580156100c7573d6000803e3d6000fd5b505050506040513d601f19601f820116820180604052508101906100eb9190610ce6565b50606090506000806100ff84860186610b0b565b92509250925060006101338884867f00000000000000000000000000000000000000000000000000000000000000006102e3565b90507f00000000000000000000000000000000000000000000000000000000000000006001600160a01b03166302b9446c8a7f0000000000000000000000000000000000000000000000000000000000000000338b60006040518663ffffffff1660e01b81526004016101aa959493929190610d9d565b6040805180830381600087803b1580156101c357600080fd5b505af11580156101d7573d6000803e3d6000fd5b505050506040513d601f19601f820116820180604052508101906101fb9190610ce6565b50507f00000000000000000000000000000000000000000000000000000000000000006001600160a01b03166302b9446c8a7f0000000000000000000000000000000000000000000000000000000000000000856102628c8761043190919063ffffffff16565b60006040518663ffffffff1660e01b8152600401610284959493929190610d9d565b6040805180830381600087803b15801561029d57600080fd5b505af11580156102b1573d6000803e3d6000fd5b505050506040513d601f19601f820116820180604052508101906102d59190610ce6565b505050505050505050505050565b600060606103337f000000000000000000000000000000000000000000000000000000000000000087867f000000000000000000000000000000000000000000000000000000000000000061045a565b90508060018251038151811061034557fe5b60200260200101519150848210156103785760405162461bcd60e51b815260040161036f90610fd9565b60405180910390fd5b61041d6103ef7f0000000000000000000000000000000000000000000000000000000000000000866000815181106103ac57fe5b6020026020010151876001815181106103c157fe5b60200260200101517f000000000000000000000000000000000000000000000000000000000000000061056a565b87866000815181106103fd57fe5b60200260200101516001600160a01b03166105dd9092919063ffffffff16565b6104288185856106d3565b50949350505050565b808203828111156104545760405162461bcd60e51b815260040161036f90610dd1565b92915050565b606060028351101561047e5760405162461bcd60e51b815260040161036f90610ed8565b825167ffffffffffffffff8111801561049657600080fd5b506040519080825280602002602001820160405280156104c0578160200160208202803683370190505b50905083816000815181106104d157fe5b60200260200101818152505060005b600184510381101561042857600080610524888785815181106104ff57fe5b602002602001015188866001018151811061051657fe5b6020026020010151886108a7565b9150915061054684848151811061053757fe5b60200260200101518383610982565b84846001018151811061055557fe5b602090810291909101015250506001016104e0565b60008060006105798686610a1c565b91509150868282604051602001610591929190610d09565b60405160208183030381529060405280519060200120856040516020016105ba93929190610d4c565b60408051601f198184030181529190528051602090910120979650505050505050565b60006060846001600160a01b031663a9059cbb60e01b8585604051602401610606929190610d84565b60408051601f198184030181529181526020820180516001600160e01b03166001600160e01b03199094169390931790925290516106449190610d30565b6000604051808303816000865af19150503d8060008114610681576040519150601f19603f3d011682016040523d82523d6000602084013e610686565b606091505b50915091508180156106b05750805115806106b05750808060200190518101906106b09190610bc6565b6106cc5760405162461bcd60e51b815260040161036f90610e00565b5050505050565b60005b60018351038110156108a1576000808483815181106106f157fe5b602002602001015185846001018151811061070857fe5b60200260200101519150915060006107208383610a1c565b509050600087856001018151811061073457fe5b60200260200101519050600080836001600160a01b0316866001600160a01b03161461076257826000610766565b6000835b91509150600060028a5103881061077d57886107b1565b6107b17f0000000000000000000000000000000000000000000000000000000000000000878c8b600201815181106103c157fe5b90506107ff7f000000000000000000000000000000000000000000000000000000000000000088887f000000000000000000000000000000000000000000000000000000000000000061056a565b6001600160a01b031663022c0d9f84848460006040519080825280601f01601f19166020018201604052801561083c576020820181803683370190505b506040518563ffffffff1660e01b815260040161085c9493929190611010565b600060405180830381600087803b15801561087657600080fd5b505af115801561088a573d6000803e3d6000fd5b5050600190990198506106d6975050505050505050565b50505050565b60008060006108b68686610a1c565b5090506000806108c88989898961056a565b6001600160a01b0316630902f1ac6040518163ffffffff1660e01b815260040160606040518083038186803b15801561090057600080fd5b505afa158015610914573d6000803e3d6000fd5b505050506040513d601f19601f820116820180604052508101906109389190610c92565b506001600160701b031691506001600160701b03169150826001600160a01b0316886001600160a01b03161461096f578082610972565b81815b909a909950975050505050505050565b60008084116109a35760405162461bcd60e51b815260040161036f90610f8e565b6000831180156109b35750600082115b6109cf5760405162461bcd60e51b815260040161036f90610f0f565b60006109dd856103e5610aa6565b905060006109eb8285610aa6565b90506000610a05836109ff886103e8610aa6565b90610add565b9050808281610a1057fe5b04979650505050505050565b600080826001600160a01b0316846001600160a01b03161415610a515760405162461bcd60e51b815260040161036f90610e93565b826001600160a01b0316846001600160a01b031610610a71578284610a74565b83835b90925090506001600160a01b038216610a9f5760405162461bcd60e51b815260040161036f90610f57565b9250929050565b6000811580610ac157505080820282828281610abe57fe5b04145b6104545760405162461bcd60e51b815260040161036f90610e37565b808201828110156104545760405162461bcd60e51b815260040161036f90610e65565b8035610454816110d3565b600080600060608486031215610b1f578283fd5b833567ffffffffffffffff811115610b35578384fd5b8401601f81018613610b45578384fd5b8035610b58610b5382611087565b611060565b80828252602080830192508085018a828387028801011115610b78578889fd5b8895505b84861015610ba257610b8e8b82610b00565b845260019590950194928101928101610b7c565b509096508701359450610bbd92508791505060408601610b00565b90509250925092565b600060208284031215610bd7578081fd5b81518015158114610be6578182fd5b9392505050565b60008060008060008060a08789031215610c05578182fd5b8635610c10816110d3565b95506020870135610c20816110d3565b94506040870135935060608701359250608087013567ffffffffffffffff80821115610c4a578384fd5b818901915089601f830112610c5d578384fd5b813581811115610c6b578485fd5b8a6020828501011115610c7c578485fd5b6020830194508093505050509295509295509295565b600080600060608486031215610ca6578283fd5b8351610cb1816110eb565b6020850151909350610cc2816110eb565b604085015190925063ffffffff81168114610cdb578182fd5b809150509250925092565b60008060408385031215610cf8578182fd5b505080516020909101519092909150565b6bffffffffffffffffffffffff19606093841b811682529190921b16601482015260280190565b60008251610d428184602087016110a7565b9190910192915050565b6001600160f81b0319815260609390931b6bffffffffffffffffffffffff191660018401526015830191909152603582015260550190565b6001600160a01b03929092168252602082015260400190565b6001600160a01b03958616815293851660208501529190931660408301526060820192909252608081019190915260a00190565b602080825260159082015274426f72696e674d6174683a20556e646572666c6f7760581b604082015260600190565b6020808252601c908201527f426f72696e6745524332303a205472616e73666572206661696c656400000000604082015260600190565b60208082526014908201527364732d6d6174682d6d756c2d6f766572666c6f7760601b604082015260600190565b60208082526014908201527364732d6d6174682d6164642d6f766572666c6f7760601b604082015260600190565b60208082526025908201527f556e697377617056324c6962726172793a204944454e544943414c5f41444452604082015264455353455360d81b606082015260800190565b6020808252601e908201527f556e697377617056324c6962726172793a20494e56414c49445f504154480000604082015260600190565b60208082526028908201527f556e697377617056324c6962726172793a20494e53554646494349454e545f4c604082015267495155494449545960c01b606082015260800190565b6020808252601e908201527f556e697377617056324c6962726172793a205a45524f5f414444524553530000604082015260600190565b6020808252602b908201527f556e697377617056324c6962726172793a20494e53554646494349454e545f4960408201526a1394155517d05353d5539560aa1b606082015260800190565b60208082526017908201527f696e73756666696369656e742d616d6f756e742d6f7574000000000000000000604082015260600190565b600085825284602083015260018060a01b03841660408301526080606083015282518060808401526110498160a08501602087016110a7565b601f01601f19169190910160a00195945050505050565b60405181810167ffffffffffffffff8111828210171561107f57600080fd5b604052919050565b600067ffffffffffffffff82111561109d578081fd5b5060209081020190565b60005b838110156110c25781810151838201526020016110aa565b838111156108a15750506000910152565b6001600160a01b03811681146110e857600080fd5b50565b6001600160701b03811681146110e857600080fdfea2646970667358221220185148dd144fdada4b1d83c73fbdff58328ef4e210acf4b4f44a4eb86323687864736f6c634300060c0033",
  "devdoc": {
    "kind": "dev",
    "methods": {},
    "version": 1
  },
  "userdoc": {
    "kind": "user",
    "methods": {},
    "version": 1
  },
  "storageLayout": {
    "storage": [],
    "types": null
  }
}