{
  "address": "0x8C6b2e5B8028825d371E1264f57C5CcaE0fa4D65",
  "abi": [
    {
      "inputs": [
        {
          "internalType": "address",
          "name": "_factory",
          "type": "address"
        },
        {
          "internalType": "contract IBentoBoxV1",
          "name": "_bentoBox",
          "type": "address"
        },
        {
          "internalType": "bytes32",
          "name": "_pairCodeHash",
          "type": "bytes32"
        }
      ],
      "stateMutability": "nonpayable",
      "type": "constructor"
    },
    {
      "inputs": [
        {
          "internalType": "contract IERC20",
          "name": "tokenIn",
          "type": "address"
        },
        {
          "internalType": "contract IERC20",
          "name": "tokenOut",
          "type": "address"
        },
        {
          "internalType": "uint256",
          "name": "amountIn",
          "type": "uint256"
        },
        {
          "internalType": "uint256",
          "name": "amountMinOut",
          "type": "uint256"
        },
        {
          "internalType": "bytes",
          "name": "data",
          "type": "bytes"
        }
      ],
      "name": "onLimitOrder",
      "outputs": [],
      "stateMutability": "nonpayable",
      "type": "function"
    }
  ],
  "transactionHash": "0xaa65d2f7d7acf86b032de27d6f689a605dd570e43d18454f19145d3762fee639",
  "args": [
    "0xc35DADB65012eC5796536bD9864eD8773aBc74C4",
    "0x0319000133d3AdA02600f0875d2cf03D442C3367",
    "0xe18a34eb0e04b04f7a0ac29a6e80748dca96319b42c54d679cb821dca90c6303"
  ],
  "solcInputHash": "1574d070dac8cd3ec3e6bcf958c23920",
  "bytecode": "0x60e060405234801561001057600080fd5b5060405161159a38038061159a83398101604081905261002f91610052565b6001600160601b0319606093841b81166080529190921b1660a05260c0526100ac565b600080600060608486031215610066578283fd5b835161007181610094565b602085015190935061008281610094565b80925050604084015190509250925092565b6001600160a01b03811681146100a957600080fd5b50565b60805160601c60a05160601c60c05161148b61010f6000398061034f5280610425528061092052508060825280610135528061015d528061019a5280610232528061026f52508061032c52806103da52806108c752806108fd525061148b6000f3fe608060405234801561001057600080fd5b506004361061002b5760003560e01c8063ff64450f14610030575b600080fd5b61004361003e366004610e51565b610045565b005b6040517f97da6d3000000000000000000000000000000000000000000000000000000000815273ffffffffffffffffffffffffffffffffffffffff7f000000000000000000000000000000000000000000000000000000000000000016906397da6d30906100c0908990309081908a9060009060040161104c565b6040805180830381600087803b1580156100d957600080fd5b505af11580156100ed573d6000803e3d6000fd5b505050506040513d601f19601f820116820180604052508101906101119190610f4a565b506060905060008061012584860186610d6f565b92509250925060006101598884867f0000000000000000000000000000000000000000000000000000000000000000610323565b90507f000000000000000000000000000000000000000000000000000000000000000073ffffffffffffffffffffffffffffffffffffffff166302b9446c8a7f0000000000000000000000000000000000000000000000000000000000000000338b60006040518663ffffffff1660e01b81526004016101dd95949392919061104c565b6040805180830381600087803b1580156101f657600080fd5b505af115801561020a573d6000803e3d6000fd5b505050506040513d601f19601f8201168201806040525081019061022e9190610f4a565b50507f000000000000000000000000000000000000000000000000000000000000000073ffffffffffffffffffffffffffffffffffffffff166302b9446c8a7f0000000000000000000000000000000000000000000000000000000000000000856102a28c8761049890919063ffffffff16565b60006040518663ffffffff1660e01b81526004016102c495949392919061104c565b6040805180830381600087803b1580156102dd57600080fd5b505af11580156102f1573d6000803e3d6000fd5b505050506040513d601f19601f820116820180604052508101906103159190610f4a565b505050505050505050505050565b600060606103737f000000000000000000000000000000000000000000000000000000000000000087867f00000000000000000000000000000000000000000000000000000000000000006104db565b90508060018251038151811061038557fe5b60200260200101519150848210156103d2576040517f08c379a00000000000000000000000000000000000000000000000000000000081526004016103c9906112ee565b60405180910390fd5b6104846104497f00000000000000000000000000000000000000000000000000000000000000008660008151811061040657fe5b60200260200101518760018151811061041b57fe5b60200260200101517f0000000000000000000000000000000000000000000000000000000000000000610605565b878660008151811061045757fe5b602002602001015173ffffffffffffffffffffffffffffffffffffffff166106969092919063ffffffff16565b61048f8185856107fe565b50949350505050565b808203828111156104d5576040517f08c379a00000000000000000000000000000000000000000000000000000000081526004016103c99061108d565b92915050565b6060600283511015610519576040517f08c379a00000000000000000000000000000000000000000000000000000000081526004016103c9906111c6565b825167ffffffffffffffff8111801561053157600080fd5b5060405190808252806020026020018201604052801561055b578160200160208202803683370190505b509050838160008151811061056c57fe5b60200260200101818152505060005b600184510381101561048f576000806105bf8887858151811061059a57fe5b60200260200101518886600101815181106105b157fe5b6020026020010151886109f9565b915091506105e18484815181106105d257fe5b60200260200101518383610b09565b8484600101815181106105f057fe5b6020908102919091010152505060010161057b565b60008060006106148686610bd7565b9150915086828260405160200161062c929190610f6d565b604051602081830303815290604052805190602001208560405160200161065593929190610fc3565b604080517fffffffffffffffffffffffffffffffffffffffffffffffffffffffffffffffe08184030181529190528051602090910120979650505050505050565b600060608473ffffffffffffffffffffffffffffffffffffffff1663a9059cbb60e01b85856040516024016106cc929190611026565b604080517fffffffffffffffffffffffffffffffffffffffffffffffffffffffffffffffe08184030181529181526020820180517bffffffffffffffffffffffffffffffffffffffffffffffffffffffff167fffffffff000000000000000000000000000000000000000000000000000000009094169390931790925290516107559190610fa7565b6000604051808303816000865af19150503d8060008114610792576040519150601f19603f3d011682016040523d82523d6000602084013e610797565b606091505b50915091508180156107c15750805115806107c15750808060200190518101906107c19190610e2a565b6107f7576040517f08c379a00000000000000000000000000000000000000000000000000000000081526004016103c9906110c4565b5050505050565b60005b60018351038110156109f35760008084838151811061081c57fe5b602002602001015185846001018151811061083357fe5b602002602001015191509150600061084b8383610bd7565b509050600087856001018151811061085f57fe5b602002602001015190506000808373ffffffffffffffffffffffffffffffffffffffff168673ffffffffffffffffffffffffffffffffffffffff16146108a7578260006108ab565b6000835b91509150600060028a510388106108c257886108f6565b6108f67f0000000000000000000000000000000000000000000000000000000000000000878c8b6002018151811061041b57fe5b90506109447f000000000000000000000000000000000000000000000000000000000000000088887f0000000000000000000000000000000000000000000000000000000000000000610605565b73ffffffffffffffffffffffffffffffffffffffff1663022c0d9f84848460006040519080825280601f01601f19166020018201604052801561098e576020820181803683370190505b506040518563ffffffff1660e01b81526004016109ae9493929190611325565b600060405180830381600087803b1580156109c857600080fd5b505af11580156109dc573d6000803e3d6000fd5b505060019099019850610801975050505050505050565b50505050565b6000806000610a088686610bd7565b509050600080610a1a89898989610605565b73ffffffffffffffffffffffffffffffffffffffff16630902f1ac6040518163ffffffff1660e01b815260040160606040518083038186803b158015610a5f57600080fd5b505afa158015610a73573d6000803e3d6000fd5b505050506040513d601f19601f82011682018060405250810190610a979190610ef6565b506dffffffffffffffffffffffffffff1691506dffffffffffffffffffffffffffff1691508273ffffffffffffffffffffffffffffffffffffffff168873ffffffffffffffffffffffffffffffffffffffff1614610af6578082610af9565b81815b909a909950975050505050505050565b6000808411610b44576040517f08c379a00000000000000000000000000000000000000000000000000000000081526004016103c990611291565b600083118015610b545750600082115b610b8a576040517f08c379a00000000000000000000000000000000000000000000000000000000081526004016103c9906111fd565b6000610b98856103e5610cd6565b90506000610ba68285610cd6565b90506000610bc083610bba886103e8610cd6565b90610d27565b9050808281610bcb57fe5b04979650505050505050565b6000808273ffffffffffffffffffffffffffffffffffffffff168473ffffffffffffffffffffffffffffffffffffffff161415610c40576040517f08c379a00000000000000000000000000000000000000000000000000000000081526004016103c990611169565b8273ffffffffffffffffffffffffffffffffffffffff168473ffffffffffffffffffffffffffffffffffffffff1610610c7a578284610c7d565b83835b909250905073ffffffffffffffffffffffffffffffffffffffff8216610ccf576040517f08c379a00000000000000000000000000000000000000000000000000000000081526004016103c99061125a565b9250929050565b6000811580610cf157505080820282828281610cee57fe5b04145b6104d5576040517f08c379a00000000000000000000000000000000000000000000000000000000081526004016103c9906110fb565b808201828110156104d5576040517f08c379a00000000000000000000000000000000000000000000000000000000081526004016103c990611132565b80356104d581611414565b600080600060608486031215610d83578283fd5b833567ffffffffffffffff811115610d99578384fd5b8401601f81018613610da9578384fd5b8035610dbc610db7826113c8565b6113a1565b80828252602080830192508085018a828387028801011115610ddc578889fd5b8895505b84861015610e0657610df28b82610d64565b845260019590950194928101928101610de0565b509096508701359450610e2192508791505060408601610d64565b90509250925092565b600060208284031215610e3b578081fd5b81518015158114610e4a578182fd5b9392505050565b60008060008060008060a08789031215610e69578182fd5b8635610e7481611414565b95506020870135610e8481611414565b94506040870135935060608701359250608087013567ffffffffffffffff80821115610eae578384fd5b818901915089601f830112610ec1578384fd5b813581811115610ecf578485fd5b8a6020828501011115610ee0578485fd5b6020830194508093505050509295509295509295565b600080600060608486031215610f0a578283fd5b8351610f1581611439565b6020850151909350610f2681611439565b604085015190925063ffffffff81168114610f3f578182fd5b809150509250925092565b60008060408385031215610f5c578182fd5b505080516020909101519092909150565b7fffffffffffffffffffffffffffffffffffffffff000000000000000000000000606093841b811682529190921b16601482015260280190565b60008251610fb98184602087016113e8565b9190910192915050565b7fff00000000000000000000000000000000000000000000000000000000000000815260609390931b7fffffffffffffffffffffffffffffffffffffffff0000000000000000000000001660018401526015830191909152603582015260550190565b73ffffffffffffffffffffffffffffffffffffffff929092168252602082015260400190565b73ffffffffffffffffffffffffffffffffffffffff958616815293851660208501529190931660408301526060820192909252608081019190915260a00190565b60208082526015908201527f426f72696e674d6174683a20556e646572666c6f770000000000000000000000604082015260600190565b6020808252601c908201527f426f72696e6745524332303a205472616e73666572206661696c656400000000604082015260600190565b60208082526014908201527f64732d6d6174682d6d756c2d6f766572666c6f77000000000000000000000000604082015260600190565b60208082526014908201527f64732d6d6174682d6164642d6f766572666c6f77000000000000000000000000604082015260600190565b60208082526025908201527f556e697377617056324c6962726172793a204944454e544943414c5f4144445260408201527f4553534553000000000000000000000000000000000000000000000000000000606082015260800190565b6020808252601e908201527f556e697377617056324c6962726172793a20494e56414c49445f504154480000604082015260600190565b60208082526028908201527f556e697377617056324c6962726172793a20494e53554646494349454e545f4c60408201527f4951554944495459000000000000000000000000000000000000000000000000606082015260800190565b6020808252601e908201527f556e697377617056324c6962726172793a205a45524f5f414444524553530000604082015260600190565b6020808252602b908201527f556e697377617056324c6962726172793a20494e53554646494349454e545f4960408201527f4e5055545f414d4f554e54000000000000000000000000000000000000000000606082015260800190565b60208082526017908201527f696e73756666696369656e742d616d6f756e742d6f7574000000000000000000604082015260600190565b600085825284602083015273ffffffffffffffffffffffffffffffffffffffff8416604083015260806060830152825180608084015261136c8160a08501602087016113e8565b601f017fffffffffffffffffffffffffffffffffffffffffffffffffffffffffffffffe0169190910160a00195945050505050565b60405181810167ffffffffffffffff811182821017156113c057600080fd5b604052919050565b600067ffffffffffffffff8211156113de578081fd5b5060209081020190565b60005b838110156114035781810151838201526020016113eb565b838111156109f35750506000910152565b73ffffffffffffffffffffffffffffffffffffffff8116811461143657600080fd5b50565b6dffffffffffffffffffffffffffff8116811461143657600080fdfea26469706673582212205ed721353bd5d3fff3846906905344c89ac1dabd922359749897cf479db85acd64736f6c634300060c0033",
  "devdoc": {
    "kind": "dev",
    "methods": {},
    "version": 1
  },
  "userdoc": {
    "kind": "user",
    "methods": {},
    "version": 1
  },
  "storageLayout": {
    "storage": [],
    "types": null
  }
}