{
    "contractName": "StopLimitOrder",
    "abi": [
        {
            "inputs": [
                {
                    "internalType": "uint256",
                    "name": "_externalOrderFee",
                    "type": "uint256"
                },
                {
                    "internalType": "contract IBentoBoxV1",
                    "name": "_bentoBox",
                    "type": "address"
                }
            ],
            "stateMutability": "nonpayable",
            "type": "constructor"
        },
        {
            "anonymous": false,
            "inputs": [
                {
                    "indexed": true,
                    "internalType": "contract IERC20",
                    "name": "token",
                    "type": "address"
                },
                {
                    "indexed": true,
                    "internalType": "address",
                    "name": "feeTo",
                    "type": "address"
                },
                {
                    "indexed": false,
                    "internalType": "uint256",
                    "name": "amount",
                    "type": "uint256"
                }
            ],
            "name": "LogFeesCollected",
            "type": "event"
        },
        {
            "anonymous": false,
            "inputs": [
                {
                    "indexed": true,
                    "internalType": "address",
                    "name": "maker",
                    "type": "address"
                },
                {
                    "indexed": true,
                    "internalType": "bytes32",
                    "name": "digest",
                    "type": "bytes32"
                },
                {
                    "indexed": false,
                    "internalType": "contract ILimitOrderReceiver",
                    "name": "receiver",
                    "type": "address"
                },
                {
                    "indexed": false,
                    "internalType": "uint256",
                    "name": "fillAmount",
                    "type": "uint256"
                }
            ],
            "name": "LogFillOrder",
            "type": "event"
        },
        {
            "anonymous": false,
            "inputs": [
                {
                    "indexed": true,
                    "internalType": "address",
                    "name": "user",
                    "type": "address"
                },
                {
                    "indexed": true,
                    "internalType": "bytes32",
                    "name": "digest",
                    "type": "bytes32"
                }
            ],
            "name": "LogOrderCancelled",
            "type": "event"
        },
        {
            "anonymous": false,
            "inputs": [
                {
                    "indexed": true,
                    "internalType": "address",
                    "name": "feeTo",
                    "type": "address"
                },
                {
                    "indexed": false,
                    "internalType": "uint256",
                    "name": "externalOrderFee",
                    "type": "uint256"
                }
            ],
            "name": "LogSetFees",
            "type": "event"
        },
        {
            "anonymous": false,
            "inputs": [
                {
                    "indexed": true,
                    "internalType": "contract ILimitOrderReceiver",
                    "name": "receiver",
                    "type": "address"
                }
            ],
            "name": "LogWhiteListReceiver",
            "type": "event"
        },
        {
            "anonymous": false,
            "inputs": [
                {
                    "indexed": true,
                    "internalType": "address",
                    "name": "previousOwner",
                    "type": "address"
                },
                {
                    "indexed": true,
                    "internalType": "address",
                    "name": "newOwner",
                    "type": "address"
                }
            ],
            "name": "OwnershipTransferred",
            "type": "event"
        },
        {
            "inputs": [],
            "name": "FEE_DIVISOR",
            "outputs": [
                {
                    "internalType": "uint256",
                    "name": "",
                    "type": "uint256"
                }
            ],
            "stateMutability": "view",
            "type": "function"
        },
        {
            "inputs": [
                {
                    "internalType": "bytes[]",
                    "name": "calls",
                    "type": "bytes[]"
                },
                {
                    "internalType": "bool",
                    "name": "revertOnFail",
                    "type": "bool"
                }
            ],
            "name": "batch",
            "outputs": [
                {
                    "internalType": "bool[]",
                    "name": "successes",
                    "type": "bool[]"
                },
                {
                    "internalType": "bytes[]",
                    "name": "results",
                    "type": "bytes[]"
                }
            ],
            "stateMutability": "payable",
            "type": "function"
        },
        {
            "inputs": [
                {
                    "components": [
                        {
                            "internalType": "address",
                            "name": "maker",
                            "type": "address"
                        },
                        {
                            "internalType": "uint256",
                            "name": "amountIn",
                            "type": "uint256"
                        },
                        {
                            "internalType": "uint256",
                            "name": "amountOut",
                            "type": "uint256"
                        },
                        {
                            "internalType": "address",
                            "name": "recipient",
                            "type": "address"
                        },
                        {
                            "internalType": "uint256",
                            "name": "startTime",
                            "type": "uint256"
                        },
                        {
                            "internalType": "uint256",
                            "name": "endTime",
                            "type": "uint256"
                        },
                        {
                            "internalType": "uint256",
                            "name": "stopPrice",
                            "type": "uint256"
                        },
                        {
                            "internalType": "contract IOracle",
                            "name": "oracleAddress",
                            "type": "address"
                        },
                        {
                            "internalType": "bytes",
                            "name": "oracleData",
                            "type": "bytes"
                        },
                        {
                            "internalType": "uint256",
                            "name": "amountToFill",
                            "type": "uint256"
                        },
                        {
                            "internalType": "uint8",
                            "name": "v",
                            "type": "uint8"
                        },
                        {
                            "internalType": "bytes32",
                            "name": "r",
                            "type": "bytes32"
                        },
                        {
                            "internalType": "bytes32",
                            "name": "s",
                            "type": "bytes32"
                        }
                    ],
                    "internalType": "struct StopLimitOrder.OrderArgs[]",
                    "name": "order",
                    "type": "tuple[]"
                },
                {
                    "internalType": "contract IERC20",
                    "name": "tokenIn",
                    "type": "address"
                },
                {
                    "internalType": "contract IERC20",
                    "name": "tokenOut",
                    "type": "address"
                },
                {
                    "internalType": "contract ILimitOrderReceiver",
                    "name": "receiver",
                    "type": "address"
                },
                {
                    "internalType": "bytes",
                    "name": "data",
                    "type": "bytes"
                }
            ],
            "name": "batchFillOrder",
            "outputs": [],
            "stateMutability": "nonpayable",
            "type": "function"
        },
        {
            "inputs": [
                {
                    "components": [
                        {
                            "internalType": "address",
                            "name": "maker",
                            "type": "address"
                        },
                        {
                            "internalType": "uint256",
                            "name": "amountIn",
                            "type": "uint256"
                        },
                        {
                            "internalType": "uint256",
                            "name": "amountOut",
                            "type": "uint256"
                        },
                        {
                            "internalType": "address",
                            "name": "recipient",
                            "type": "address"
                        },
                        {
                            "internalType": "uint256",
                            "name": "startTime",
                            "type": "uint256"
                        },
                        {
                            "internalType": "uint256",
                            "name": "endTime",
                            "type": "uint256"
                        },
                        {
                            "internalType": "uint256",
                            "name": "stopPrice",
                            "type": "uint256"
                        },
                        {
                            "internalType": "contract IOracle",
                            "name": "oracleAddress",
                            "type": "address"
                        },
                        {
                            "internalType": "bytes",
                            "name": "oracleData",
                            "type": "bytes"
                        },
                        {
                            "internalType": "uint256",
                            "name": "amountToFill",
                            "type": "uint256"
                        },
                        {
                            "internalType": "uint8",
                            "name": "v",
                            "type": "uint8"
                        },
                        {
                            "internalType": "bytes32",
                            "name": "r",
                            "type": "bytes32"
                        },
                        {
                            "internalType": "bytes32",
                            "name": "s",
                            "type": "bytes32"
                        }
                    ],
                    "internalType": "struct StopLimitOrder.OrderArgs[]",
                    "name": "order",
                    "type": "tuple[]"
                },
                {
                    "internalType": "contract IERC20",
                    "name": "tokenIn",
                    "type": "address"
                },
                {
                    "internalType": "contract IERC20",
                    "name": "tokenOut",
                    "type": "address"
                },
                {
                    "internalType": "contract ILimitOrderReceiver",
                    "name": "receiver",
                    "type": "address"
                },
                {
                    "internalType": "bytes",
                    "name": "data",
                    "type": "bytes"
                }
            ],
            "name": "batchFillOrderOpen",
            "outputs": [],
            "stateMutability": "nonpayable",
            "type": "function"
        },
        {
            "inputs": [
                {
                    "internalType": "bytes32",
                    "name": "hash",
                    "type": "bytes32"
                }
            ],
            "name": "cancelOrder",
            "outputs": [],
            "stateMutability": "nonpayable",
            "type": "function"
        },
        {
            "inputs": [
                {
                    "internalType": "address",
                    "name": "",
                    "type": "address"
                },
                {
                    "internalType": "bytes32",
                    "name": "",
                    "type": "bytes32"
                }
            ],
            "name": "cancelledOrder",
            "outputs": [
                {
                    "internalType": "bool",
                    "name": "",
                    "type": "bool"
                }
            ],
            "stateMutability": "view",
            "type": "function"
        },
        {
            "inputs": [],
            "name": "claimOwnership",
            "outputs": [],
            "stateMutability": "nonpayable",
            "type": "function"
        },
        {
            "inputs": [],
            "name": "deploymentChainId",
            "outputs": [
                {
                    "internalType": "uint256",
                    "name": "",
                    "type": "uint256"
                }
            ],
            "stateMutability": "view",
            "type": "function"
        },
        {
            "inputs": [],
            "name": "externalOrderFee",
            "outputs": [
                {
                    "internalType": "uint256",
                    "name": "",
                    "type": "uint256"
                }
            ],
            "stateMutability": "view",
            "type": "function"
        },
        {
            "inputs": [],
            "name": "feeTo",
            "outputs": [
                {
                    "internalType": "address",
                    "name": "",
                    "type": "address"
                }
            ],
            "stateMutability": "view",
            "type": "function"
        },
        {
            "inputs": [
                {
                    "internalType": "contract IERC20",
                    "name": "",
                    "type": "address"
                }
            ],
            "name": "feesCollected",
            "outputs": [
                {
                    "internalType": "uint256",
                    "name": "",
                    "type": "uint256"
                }
            ],
            "stateMutability": "view",
            "type": "function"
        },
        {
            "inputs": [
                {
                    "components": [
                        {
                            "internalType": "address",
                            "name": "maker",
                            "type": "address"
                        },
                        {
                            "internalType": "uint256",
                            "name": "amountIn",
                            "type": "uint256"
                        },
                        {
                            "internalType": "uint256",
                            "name": "amountOut",
                            "type": "uint256"
                        },
                        {
                            "internalType": "address",
                            "name": "recipient",
                            "type": "address"
                        },
                        {
                            "internalType": "uint256",
                            "name": "startTime",
                            "type": "uint256"
                        },
                        {
                            "internalType": "uint256",
                            "name": "endTime",
                            "type": "uint256"
                        },
                        {
                            "internalType": "uint256",
                            "name": "stopPrice",
                            "type": "uint256"
                        },
                        {
                            "internalType": "contract IOracle",
                            "name": "oracleAddress",
                            "type": "address"
                        },
                        {
                            "internalType": "bytes",
                            "name": "oracleData",
                            "type": "bytes"
                        },
                        {
                            "internalType": "uint256",
                            "name": "amountToFill",
                            "type": "uint256"
                        },
                        {
                            "internalType": "uint8",
                            "name": "v",
                            "type": "uint8"
                        },
                        {
                            "internalType": "bytes32",
                            "name": "r",
                            "type": "bytes32"
                        },
                        {
                            "internalType": "bytes32",
                            "name": "s",
                            "type": "bytes32"
                        }
                    ],
                    "internalType": "struct StopLimitOrder.OrderArgs",
                    "name": "order",
                    "type": "tuple"
                },
                {
                    "internalType": "contract IERC20",
                    "name": "tokenIn",
                    "type": "address"
                },
                {
                    "internalType": "contract IERC20",
                    "name": "tokenOut",
                    "type": "address"
                },
                {
                    "internalType": "contract ILimitOrderReceiver",
                    "name": "receiver",
                    "type": "address"
                },
                {
                    "internalType": "bytes",
                    "name": "data",
                    "type": "bytes"
                }
            ],
            "name": "fillOrder",
            "outputs": [],
            "stateMutability": "nonpayable",
            "type": "function"
        },
        {
            "inputs": [
                {
                    "components": [
                        {
                            "internalType": "address",
                            "name": "maker",
                            "type": "address"
                        },
                        {
                            "internalType": "uint256",
                            "name": "amountIn",
                            "type": "uint256"
                        },
                        {
                            "internalType": "uint256",
                            "name": "amountOut",
                            "type": "uint256"
                        },
                        {
                            "internalType": "address",
                            "name": "recipient",
                            "type": "address"
                        },
                        {
                            "internalType": "uint256",
                            "name": "startTime",
                            "type": "uint256"
                        },
                        {
                            "internalType": "uint256",
                            "name": "endTime",
                            "type": "uint256"
                        },
                        {
                            "internalType": "uint256",
                            "name": "stopPrice",
                            "type": "uint256"
                        },
                        {
                            "internalType": "contract IOracle",
                            "name": "oracleAddress",
                            "type": "address"
                        },
                        {
                            "internalType": "bytes",
                            "name": "oracleData",
                            "type": "bytes"
                        },
                        {
                            "internalType": "uint256",
                            "name": "amountToFill",
                            "type": "uint256"
                        },
                        {
                            "internalType": "uint8",
                            "name": "v",
                            "type": "uint8"
                        },
                        {
                            "internalType": "bytes32",
                            "name": "r",
                            "type": "bytes32"
                        },
                        {
                            "internalType": "bytes32",
                            "name": "s",
                            "type": "bytes32"
                        }
                    ],
                    "internalType": "struct StopLimitOrder.OrderArgs",
                    "name": "order",
                    "type": "tuple"
                },
                {
                    "internalType": "contract IERC20",
                    "name": "tokenIn",
                    "type": "address"
                },
                {
                    "internalType": "contract IERC20",
                    "name": "tokenOut",
                    "type": "address"
                },
                {
                    "internalType": "contract ILimitOrderReceiver",
                    "name": "receiver",
                    "type": "address"
                },
                {
                    "internalType": "bytes",
                    "name": "data",
                    "type": "bytes"
                }
            ],
            "name": "fillOrderOpen",
            "outputs": [],
            "stateMutability": "nonpayable",
            "type": "function"
        },
        {
            "inputs": [
                {
                    "internalType": "bytes32",
                    "name": "",
                    "type": "bytes32"
                }
            ],
            "name": "orderStatus",
            "outputs": [
                {
                    "internalType": "uint256",
                    "name": "",
                    "type": "uint256"
                }
            ],
            "stateMutability": "view",
            "type": "function"
        },
        {
            "inputs": [],
            "name": "owner",
            "outputs": [
                {
                    "internalType": "address",
                    "name": "",
                    "type": "address"
                }
            ],
            "stateMutability": "view",
            "type": "function"
        },
        {
            "inputs": [],
            "name": "pendingOwner",
            "outputs": [
                {
                    "internalType": "address",
                    "name": "",
                    "type": "address"
                }
            ],
            "stateMutability": "view",
            "type": "function"
        },
        {
            "inputs": [
                {
                    "internalType": "contract IERC20",
                    "name": "token",
                    "type": "address"
                },
                {
                    "internalType": "address",
                    "name": "from",
                    "type": "address"
                },
                {
                    "internalType": "address",
                    "name": "to",
                    "type": "address"
                },
                {
                    "internalType": "uint256",
                    "name": "amount",
                    "type": "uint256"
                },
                {
                    "internalType": "uint256",
                    "name": "deadline",
                    "type": "uint256"
                },
                {
                    "internalType": "uint8",
                    "name": "v",
                    "type": "uint8"
                },
                {
                    "internalType": "bytes32",
                    "name": "r",
                    "type": "bytes32"
                },
                {
                    "internalType": "bytes32",
                    "name": "s",
                    "type": "bytes32"
                }
            ],
            "name": "permitToken",
            "outputs": [],
            "stateMutability": "nonpayable",
            "type": "function"
        },
        {
            "inputs": [
                {
                    "internalType": "address",
                    "name": "_feeTo",
                    "type": "address"
                },
                {
                    "internalType": "uint256",
                    "name": "_externalOrderFee",
                    "type": "uint256"
                }
            ],
            "name": "setFees",
            "outputs": [],
            "stateMutability": "nonpayable",
            "type": "function"
        },
        {
            "inputs": [
                {
                    "internalType": "contract IERC20",
                    "name": "token",
                    "type": "address"
                }
            ],
            "name": "swipe",
            "outputs": [],
            "stateMutability": "nonpayable",
            "type": "function"
        },
        {
            "inputs": [
                {
                    "internalType": "contract IERC20",
                    "name": "token",
                    "type": "address"
                }
            ],
            "name": "swipeFees",
            "outputs": [],
            "stateMutability": "nonpayable",
            "type": "function"
        },
        {
            "inputs": [
                {
                    "internalType": "address",
                    "name": "newOwner",
                    "type": "address"
                },
                {
                    "internalType": "bool",
                    "name": "direct",
                    "type": "bool"
                },
                {
                    "internalType": "bool",
                    "name": "renounce",
                    "type": "bool"
                }
            ],
            "name": "transferOwnership",
            "outputs": [],
            "stateMutability": "nonpayable",
            "type": "function"
        },
        {
            "inputs": [
                {
                    "internalType": "contract ILimitOrderReceiver",
                    "name": "receiver",
                    "type": "address"
                }
            ],
            "name": "whiteListReceiver",
            "outputs": [],
            "stateMutability": "nonpayable",
            "type": "function"
        }
    ],
    "bytecode": "60e06040523480156200001157600080fd5b5060405162002dbe38038062002dbe83398101604081905262000034916200018c565b600080546001600160a01b0319163390811782556040519091907f8be0079c531659141344cd1fd0a4f28419497f9722a3daafe3b4186f6b6457e0908290a34660a0819052620000848162000114565b6080526002839055600380546001600160a01b031916331790556001600160601b0319606083901b1660c0526040805163577268d960e11b815290516001600160a01b0384169163aee4d1b291600480830192600092919082900301818387803b158015620000f257600080fd5b505af115801562000107573d6000803e3d6000fd5b50505050505050620001ed565b60007f8cad95687ba82c2ce50e74f7b754645e5117c3a5bec8151c0726d5857980a8667f60f7369f0450eeece08b3b96921dc6c416599bab90758942976243b3b025f39083306040516020016200016f9493929190620001c9565b604051602081830303815290604052805190602001209050919050565b600080604083850312156200019f578182fd5b825160208401519092506001600160a01b0381168114620001be578182fd5b809150509250929050565b938452602084019290925260408301526001600160a01b0316606082015260800190565b60805160a05160c05160601c612b5b6200026360003980610714528061074a52806109dd5280610abc5280610b505280610c7e5280610cfe5280610f075280610f9b5280611096528061114252806116fa52806118ca52806119875250806112a35280611d93525080611dc85250612b5b6000f3fe6080604052600436106101355760003560e01c80637c516e94116100ab5780639e93ad8e1161006f5780639e93ad8e14610340578063c5b82ae014610355578063cce7db5814610375578063cd0d009614610395578063d2423b51146103aa578063e30c3978146103cb57610135565b80637c516e94146102ab57806380fdbba7146102cb5780638da5cb5b146102eb57806395287c0514610300578063995f14ba1461032057610135565b80635947cde6116100fd5780635947cde6146101e95780635b2478ea146101fe5780635e5c6ada1461021e5780636745b38f1461023e5780637074a67c1461026b5780637489ec231461028b57610135565b8063017e7e581461013a578063078dfbe7146101655780632dff692d146101875780634e71e0c8146101b457806356e88ff1146101c9575b600080fd5b34801561014657600080fd5b5061014f6103e0565b60405161015c91906124f4565b60405180910390f35b34801561017157600080fd5b50610185610180366004612032565b6103ef565b005b34801561019357600080fd5b506101a76101a2366004612252565b6104de565b60405161015c9190612a1a565b3480156101c057600080fd5b506101856104f0565b3480156101d557600080fd5b506101856101e436600461226a565b61057d565b3480156101f557600080fd5b506101a76105f3565b34801561020a57600080fd5b506101a761021936600461226a565b6105f9565b34801561022a57600080fd5b5061018561023936600461207c565b61060b565b34801561024a57600080fd5b5061025e61025936600461207c565b610694565b60405161015c91906125fc565b34801561027757600080fd5b50610185610286366004612379565b6106b4565b34801561029757600080fd5b506101856102a6366004612252565b610844565b3480156102b757600080fd5b506101856102c6366004612286565b610894565b3480156102d757600080fd5b506101856102e636600461211b565b6108cc565b3480156102f757600080fd5b5061014f610c1d565b34801561030c57600080fd5b5061018561031b366004612379565b610c2c565b34801561032c57600080fd5b5061018561033b36600461211b565b610df2565b34801561034c57600080fd5b506101a761105b565b34801561036157600080fd5b5061018561037036600461226a565b611062565b34801561038157600080fd5b5061018561039036600461226a565b611201565b3480156103a157600080fd5b506101a76112a1565b6103bd6103b83660046120a7565b6112c5565b60405161015c929190612562565b3480156103d757600080fd5b5061014f611455565b6003546001600160a01b031681565b6000546001600160a01b031633146104225760405162461bcd60e51b8152600401610419906128ce565b60405180910390fd5b81156104bd576001600160a01b03831615158061043c5750805b6104585760405162461bcd60e51b815260040161041990612838565b600080546040516001600160a01b03808716939216917f8be0079c531659141344cd1fd0a4f28419497f9722a3daafe3b4186f6b6457e091a3600080546001600160a01b0385166001600160a01b0319918216179091556001805490911690556104d9565b600180546001600160a01b0319166001600160a01b0385161790555b505050565b60066020526000908152604090205481565b6001546001600160a01b031633811461051b5760405162461bcd60e51b815260040161041990612954565b600080546040516001600160a01b03808516939216917f8be0079c531659141344cd1fd0a4f28419497f9722a3daafe3b4186f6b6457e091a3600080546001600160a01b039092166001600160a01b0319928316179055600180549091169055565b6000546001600160a01b031633146105a75760405162461bcd60e51b8152600401610419906128ce565b6001600160a01b038116600081815260046020526040808220805460ff19166001179055517f644d95380df3e33c8f52bdf77ac2b81858adf2ef3556fdb2dd4d83b1a18801719190a250565b60025481565b60076020526000908152604090205481565b6000546001600160a01b031633146106355760405162461bcd60e51b8152600401610419906128ce565b600380546001600160a01b0319166001600160a01b03841690811790915560028290556040517f2ea9bd407f4356d98500b95cfcbae976433d797a4540b1a143b3581f43204dd090610688908490612a1a565b60405180910390a25050565b600560209081526000928352604080842090915290825290205460ff1681565b6001600160a01b03831660009081526004602052604090205460ff166106ec5760405162461bcd60e51b815260040161041990612801565b6000806106fb88888888611464565b9250925050610711878787878786886000611833565b507f00000000000000000000000000000000000000000000000000000000000000006001600160a01b031663f18d03cc87308b606001517f00000000000000000000000000000000000000000000000000000000000000006001600160a01b031663da5139ca8c8960006040518463ffffffff1660e01b815260040161079993929190612778565b60206040518083038186803b1580156107b157600080fd5b505afa1580156107c5573d6000803e3d6000fd5b505050506040513d601f19601f820116820180604052508101906107e9919061245d565b6040518563ffffffff1660e01b815260040161080894939291906126f5565b600060405180830381600087803b15801561082257600080fd5b505af1158015610836573d6000803e3d6000fd5b505050505050505050505050565b336000818152600560209081526040808320858452909152808220805460ff19166001179055518392917f4612030685f9030d043c9ace9b793008c325c54e54484ee9d7a0f8b85817fc5a91a350565b60405163d505accf60e01b81526001600160a01b0389169063d505accf90610808908a908a908a908a908a908a908a90600401612508565b606086516001600160401b03811180156108e557600080fd5b5060405190808252806020026020018201604052801561090f578160200160208202803683370190505b50905060008060005b895181101561099e5760006109428b838151811061093257fe5b60200260200101518b8b8b611464565b90915086848151811061095157fe5b6020908102919091010191909152905061096b8482611a38565b935061099385838151811061097c57fe5b602002602001015184611a3890919063ffffffff16565b925050600101610918565b506000620f42406109ba60025484611a6190919063ffffffff16565b816109c157fe5b04905060006109d68a8a8a8a8a898989611833565b9050610a837f00000000000000000000000000000000000000000000000000000000000000006001600160a01b031663da5139ca8b8560016040518463ffffffff1660e01b8152600401610a2c93929190612778565b60206040518083038186803b158015610a4457600080fd5b505afa158015610a58573d6000803e3d6000fd5b505050506040513d601f19601f82011682018060405250810190610a7c919061245d565b8290611a38565b6001600160a01b038a1660009081526007602052604090205550610aa5611e64565b604051634ffe34db60e01b81526001600160a01b037f00000000000000000000000000000000000000000000000000000000000000001690634ffe34db90610af1908c906004016124f4565b604080518083038186803b158015610b0857600080fd5b505afa158015610b1c573d6000803e3d6000fd5b505050506040513d601f19601f82011682018060405250810190610b40919061241d565b905060005b8b51811015610836577f00000000000000000000000000000000000000000000000000000000000000006001600160a01b031663f18d03cc8b308f8581518110610b8b57fe5b602002602001015160600151610bc08b8781518110610ba657fe5b6020026020010151600089611a989092919063ffffffff16565b6040518563ffffffff1660e01b8152600401610bdf94939291906126f5565b600060405180830381600087803b158015610bf957600080fd5b505af1158015610c0d573d6000803e3d6000fd5b505060019092019150610b459050565b6000546001600160a01b031681565b600080610c3b88888888611464565b92509250506000620f4240610c5b60025485611a6190919063ffffffff16565b81610c6257fe5b0490506000610c778989898989888a89611833565b9050610ccd7f00000000000000000000000000000000000000000000000000000000000000006001600160a01b031663da5139ca8a8560016040518463ffffffff1660e01b8152600401610a2c93929190612778565b6001600160a01b03808a166000908152600760205260408082209390935560608d01519251636d289ce560e11b81527f00000000000000000000000000000000000000000000000000000000000000009092169263f18d03cc928c92309291869163da5139ca91610d459187918e9190600401612778565b60206040518083038186803b158015610d5d57600080fd5b505afa158015610d71573d6000803e3d6000fd5b505050506040513d601f19601f82011682018060405250810190610d95919061245d565b6040518563ffffffff1660e01b8152600401610db494939291906126f5565b600060405180830381600087803b158015610dce57600080fd5b505af1158015610de2573d6000803e3d6000fd5b5050505050505050505050505050565b6001600160a01b03831660009081526004602052604090205460ff16610e2a5760405162461bcd60e51b815260040161041990612801565b606086516001600160401b0381118015610e4357600080fd5b50604051908082528060200260200182016040528015610e6d578160200160208202803683370190505b50905060008060005b8951811015610ed5576000610e908b838151811061093257fe5b909150868481518110610e9f57fe5b60209081029190910101919091529050610eb98482611a38565b9350610eca85838151811061097c57fe5b925050600101610e76565b50610ee7888888888887876000611833565b50610ef0611e64565b604051634ffe34db60e01b81526001600160a01b037f00000000000000000000000000000000000000000000000000000000000000001690634ffe34db90610f3c908b906004016124f4565b604080518083038186803b158015610f5357600080fd5b505afa158015610f67573d6000803e3d6000fd5b505050506040513d601f19601f82011682018060405250810190610f8b919061241d565b905060005b8a5181101561104e577f00000000000000000000000000000000000000000000000000000000000000006001600160a01b031663f18d03cc8a308e8581518110610fd657fe5b602002602001015160600151610ff18a8781518110610ba657fe5b6040518563ffffffff1660e01b815260040161101094939291906126f5565b600060405180830381600087803b15801561102a57600080fd5b505af115801561103e573d6000803e3d6000fd5b505060019092019150610f909050565b5050505050505050505050565b620f424081565b6001600160a01b038082166000908152600760205260408082206001908190559051633de222bb60e21b81529192611125927f00000000000000000000000000000000000000000000000000000000000000009091169063f7888aec906110cf90879030906004016126db565b60206040518083038186803b1580156110e757600080fd5b505afa1580156110fb573d6000803e3d6000fd5b505050506040513d601f19601f8201168201806040525081019061111f919061245d565b90611b35565b600354604051633c6340f360e21b81529192506001600160a01b037f000000000000000000000000000000000000000000000000000000000000000081169263f18d03cc9261118092879230929091169087906004016126f5565b600060405180830381600087803b15801561119a57600080fd5b505af11580156111ae573d6000803e3d6000fd5b50506003546040516001600160a01b03918216935090851691507fdaecda5f887a0a2c43d6cbadb101432f7718e52c7eb083590cc8a133c54fa2cd906111f5908590612a1a565b60405180910390a35050565b6040516370a0823160e01b81526000906001600160a01b038316906370a08231906112309030906004016124f4565b60206040518083038186803b15801561124857600080fd5b505afa15801561125c573d6000803e3d6000fd5b505050506040513d601f19601f82011682018060405250810190611280919061245d565b60035490915061129d906001600160a01b03848116911683611b58565b5050565b7f000000000000000000000000000000000000000000000000000000000000000081565b606080836001600160401b03811180156112de57600080fd5b50604051908082528060200260200182016040528015611308578160200160208202803683370190505b509150836001600160401b038111801561132157600080fd5b5060405190808252806020026020018201604052801561135557816020015b60608152602001906001900390816113405790505b50905060005b8481101561144c57600060603088888581811061137457fe5b90506020028101906113869190612a23565b6040516113949291906124a1565b600060405180830381855af49150503d80600081146113cf576040519150601f19603f3d011682016040523d82523d6000602084013e6113d4565b606091505b509150915081806113e3575085155b6113ec82611c4e565b9061140a5760405162461bcd60e51b815260040161041991906126c8565b508185848151811061141857fe5b6020026020010190151590811515815250508084848151811061143757fe5b6020908102919091010152505060010161135b565b50935093915050565b6001546001600160a01b031681565b6000806000806001600160a01b03168760e001516001600160a01b031614611542576000808860e001516001600160a01b031663d6d7d5258a61010001516040518263ffffffff1660e01b81526004016114be91906126c8565b6040805180830381600087803b1580156114d757600080fd5b505af11580156114eb573d6000803e3d6000fd5b505050506040513d601f19601f8201168201806040525081019061150f9190612225565b9150915081801561152357508860c0015181115b61153f5760405162461bcd60e51b81526004016104199061289e565b50505b61154d878787611cb6565b87516001600160a01b0316600090815260056020908152604080832084845290915290205490935060ff16156115955760405162461bcd60e51b815260040161041990612989565b428760800151111580156115ad57508660a001514211155b6115c95760405162461bcd60e51b81526004016104199061292d565b86600001516001600160a01b03166001848961014001518a61016001518b61018001516040516000815260200160405260405161160994939291906126aa565b6020604051602081039080840390855afa15801561162b573d6000803e3d6000fd5b505050602060405103516001600160a01b03161461165b5760405162461bcd60e51b815260040161041990612903565b60008381526006602052604081205461012089015161167b908290611a38565b9150886020015182111561169d5760208901516116989082611b35565b6116a4565b8861012001515b92505087602001516116c3838a60400151611a6190919063ffffffff16565b816116ca57fe5b6000868152600660205260408082208590558b519051636d289ce560e11b81529390920495506001600160a01b037f0000000000000000000000000000000000000000000000000000000000000000169263f18d03cc928b9290918a91869163da5139ca9161173f9187918c91600401612778565b60206040518083038186803b15801561175757600080fd5b505afa15801561176b573d6000803e3d6000fd5b505050506040513d601f19601f8201168201806040525081019061178f919061245d565b6040518563ffffffff1660e01b81526004016117ae94939291906126f5565b600060405180830381600087803b1580156117c857600080fd5b505af11580156117dc573d6000803e3d6000fd5b505050508388600001516001600160a01b03167fce4da805eb1aedf1d7227f63c9dd3bda595b984e219a75c74a73bf8f568d031e8785604051611820929190612549565b60405180910390a3509450945094915050565b60006001600160a01b03871663ff64450f8a8a876118518888611a38565b8b8b6040518763ffffffff1660e01b81526004016118749695949392919061271f565b600060405180830381600087803b15801561188e57600080fd5b505af11580156118a2573d6000803e3d6000fd5b5050506001600160a01b03808a166000908152600760205260409020549250611970915082907f00000000000000000000000000000000000000000000000000000000000000001663da5139ca8b6118fa8888611a38565b60016040518463ffffffff1660e01b815260040161191a93929190612778565b60206040518083038186803b15801561193257600080fd5b505afa158015611946573d6000803e3d6000fd5b505050506040513d601f19601f8201168201806040525081019061196a919061245d565b90611a38565b604051633de222bb60e21b81526001600160a01b037f0000000000000000000000000000000000000000000000000000000000000000169063f7888aec906119be908c9030906004016126db565b60206040518083038186803b1580156119d657600080fd5b505afa1580156119ea573d6000803e3d6000fd5b505050506040513d601f19601f82011682018060405250810190611a0e919061245d565b1015611a2c5760405162461bcd60e51b8152600401610419906129b8565b98975050505050505050565b81810181811015611a5b5760405162461bcd60e51b815260040161041990612867565b92915050565b6000811580611a7c57505080820282828281611a7957fe5b04145b611a5b5760405162461bcd60e51b8152600401610419906129e3565b82516000906001600160801b0316611ab1575081611b2e565b835160208501516001600160801b0391821691611ad091869116611a61565b81611ad757fe5b049050818015611b1b57508284602001516001600160801b0316611b1186600001516001600160801b031684611a6190919063ffffffff16565b81611b1857fe5b04105b15611b2e57611b2b816001611a38565b90505b9392505050565b80820382811115611a5b5760405162461bcd60e51b81526004016104199061279b565b60006060846001600160a01b031663a9059cbb60e01b8585604051602401611b81929190612549565b60408051601f198184030181529181526020820180516001600160e01b03166001600160e01b0319909416939093179092529051611bbf91906124b1565b6000604051808303816000865af19150503d8060008114611bfc576040519150601f19603f3d011682016040523d82523d6000602084013e611c01565b606091505b5091509150818015611c2b575080511580611c2b575080806020019051810190611c2b9190612209565b611c475760405162461bcd60e51b8152600401610419906127ca565b5050505050565b6060604482511015611c94575060408051808201909152601d81527f5472616e73616374696f6e2072657665727465642073696c656e746c790000006020820152611cb1565b60048201915081806020019051810190611cae9190612307565b90505b919050565b6000807fd9fd14296064c59daecd3555268c2f34d84abb8ee0528b945aaa1973c4eba60685600001518585886020015189604001518a606001518b608001518c60a001518d60c001518e60e001518f6101000151604051602001611d259c9b9a99989796959493929190612607565b60408051601f1981840301815282825280516020918201208383019092526002835261190160f01b908301529150611d5b611d8e565b82604051602001611d6e939291906124cd565b604051602081830303815290604052805190602001209150509392505050565b6000467f00000000000000000000000000000000000000000000000000000000000000008114611dc657611dc181611dee565b611de8565b7f00000000000000000000000000000000000000000000000000000000000000005b91505090565b60007f8cad95687ba82c2ce50e74f7b754645e5117c3a5bec8151c0726d5857980a8667f60f7369f0450eeece08b3b96921dc6c416599bab90758942976243b3b025f3908330604051602001611e479493929190612686565b604051602081830303815290604052805190602001209050919050565b604080518082019091526000808252602082015290565b8035611a5b81612aff565b60008083601f840112611e97578182fd5b5081356001600160401b03811115611ead578182fd5b602083019150836020828501011115611ec557600080fd5b9250929050565b600082601f830112611edc578081fd5b8135611eef611eea82612aac565b612a67565b9150808252836020828501011115611f0657600080fd5b8060208401602084013760009082016020015292915050565b60006101a0808385031215611f32578182fd5b611f3b81612a67565b915050611f488383611e7b565b81526020820135602082015260408201356040820152611f6b8360608401611e7b565b60608201526080820135608082015260a082013560a082015260c082013560c0820152611f9b8360e08401611e7b565b60e0820152610100808301356001600160401b03811115611fbb57600080fd5b611fc785828601611ecc565b828401525050610120808301358183015250610140611fe884828501612021565b9082015261016082810135908201526101809182013591810191909152919050565b80516001600160801b0381168114611a5b57600080fd5b803560ff81168114611a5b57600080fd5b600080600060608486031215612046578283fd5b833561205181612aff565b9250602084013561206181612b17565b9150604084013561207181612b17565b809150509250925092565b6000806040838503121561208e578182fd5b823561209981612aff565b946020939093013593505050565b6000806000604084860312156120bb578283fd5b83356001600160401b03808211156120d1578485fd5b818601915086601f8301126120e4578485fd5b8135818111156120f2578586fd5b8760208083028501011115612105578586fd5b6020928301955093505084013561207181612b17565b60008060008060008060a08789031215612133578182fd5b6001600160401b038088351115612148578283fd5b8735880189601f82011261215a578384fd5b8035612168611eea82612a8d565b818152602080820191908401875b848110156121a35761218e8f60208435890101611f1f565b84526020938401939190910190600101612176565b5050809a50505050506121b98960208a01611e7b565b95506121c88960408a01611e7b565b94506121d78960608a01611e7b565b93506080880135818111156121ea578384fd5b6121f68a828b01611e86565b989b979a50959850939694959350505050565b60006020828403121561221a578081fd5b8151611b2e81612b17565b60008060408385031215612237578182fd5b825161224281612b17565b6020939093015192949293505050565b600060208284031215612263578081fd5b5035919050565b60006020828403121561227b578081fd5b8135611b2e81612aff565b600080600080600080600080610100898b0312156122a2578586fd5b88356122ad81612aff565b975060208901356122bd81612aff565b965060408901356122cd81612aff565b955060608901359450608089013593506122ea8a60a08b01612021565b925060c0890135915060e089013590509295985092959890939650565b600060208284031215612318578081fd5b81516001600160401b0381111561232d578182fd5b8201601f8101841361233d578182fd5b805161234b611eea82612aac565b81815285602083850101111561235f578384fd5b612370826020830160208601612acf565b95945050505050565b60008060008060008060a08789031215612391578384fd5b86356001600160401b03808211156123a7578586fd5b6123b38a838b01611f1f565b9750602089013591506123c582612aff565b9095506040880135906123d782612aff565b9094506060880135906123e982612aff565b909350608088013590808211156123fe578384fd5b5061240b89828a01611e86565b979a9699509497509295939492505050565b60006040828403121561242e578081fd5b6124386040612a67565b612442848461200a565b8152612451846020850161200a565b60208201529392505050565b60006020828403121561246e578081fd5b5051919050565b6000815180845261248d816020860160208601612acf565b601f01601f19169290920160200192915050565b6000828483379101908152919050565b600082516124c3818460208701612acf565b9190910192915050565b600084516124df818460208901612acf565b91909101928352506020820152604001919050565b6001600160a01b0391909116815260200190565b6001600160a01b0397881681529590961660208601526040850193909352606084019190915260ff16608083015260a082015260c081019190915260e00190565b6001600160a01b03929092168252602082015260400190565b604080825283519082018190526000906020906060840190828701845b8281101561259d57815115158452928401929084019060010161257f565b505050838103828501528085516125b48184612a1a565b91508192508381028201848801865b838110156125ed5785830385526125db838351612475565b948701949250908601906001016125c3565b50909998505050505050505050565b901515815260200190565b60006101808e835260018060a01b03808f166020850152808e166040850152808d1660608501528b60808501528a60a0850152808a1660c08501528860e08501528761010085015286610120850152808616610140850152508061016084015261267381840185612475565b9f9e505050505050505050505050505050565b938452602084019290925260408301526001600160a01b0316606082015260800190565b93845260ff9290921660208401526040830152606082015260800190565b600060208252611b2e6020830184612475565b6001600160a01b0392831681529116602082015260400190565b6001600160a01b039485168152928416602084015292166040820152606081019190915260800190565b6001600160a01b03878116825286166020820152604081018590526060810184905260a06080820181905281018290526000828460c084013781830160c090810191909152601f909201601f1916010195945050505050565b6001600160a01b0393909316835260208301919091521515604082015260600190565b602080825260159082015274426f72696e674d6174683a20556e646572666c6f7760581b604082015260600190565b6020808252601c908201527f426f72696e6745524332303a205472616e73666572206661696c656400000000604082015260600190565b6020808252601b908201527f4c696d69744f726465723a206e6f742077686974656c69737465640000000000604082015260600190565b6020808252601590820152744f776e61626c653a207a65726f206164647265737360581b604082015260600190565b60208082526018908201527f426f72696e674d6174683a20416464204f766572666c6f770000000000000000604082015260600190565b60208082526016908201527514dd1bdc081c1c9a58d9481b9bdd081c995858da195960521b604082015260600190565b6020808252818101527f4f776e61626c653a2063616c6c6572206973206e6f7420746865206f776e6572604082015260600190565b60208082526010908201526f2634b6b4ba1d103737ba1036b0b5b2b960811b604082015260600190565b6020808252600d908201526c1bdc99195c8b595e1c1a5c9959609a1b604082015260600190565b6020808252818101527f4f776e61626c653a2063616c6c657220213d2070656e64696e67206f776e6572604082015260600190565b602080825260159082015274131a5b5a5d13dc99195c8e8810d85b98d95b1b1959605a1b604082015260600190565b602080825260119082015270098d2dad2e87440dcdee840cadcdeeaced607b1b604082015260600190565b60208082526018908201527f426f72696e674d6174683a204d756c204f766572666c6f770000000000000000604082015260600190565b90815260200190565b6000808335601e19843603018112612a39578283fd5b8301803591506001600160401b03821115612a52578283fd5b602001915036819003821315611ec557600080fd5b6040518181016001600160401b0381118282101715612a8557600080fd5b604052919050565b60006001600160401b03821115612aa2578081fd5b5060209081020190565b60006001600160401b03821115612ac1578081fd5b50601f01601f191660200190565b60005b83811015612aea578181015183820152602001612ad2565b83811115612af9576000848401525b50505050565b6001600160a01b0381168114612b1457600080fd5b50565b8015158114612b1457600080fdfea26469706673582212206f7fddd27e7261cdb39da5018d60fbdc084a94ec5420630faa3a106c38f0111464736f6c634300060c0033",
    "sourcePath": "c:/Users/Gasper/gasper-crypto/sushi/LimitOrderV2/contracts/StopLimitOrder.sol",
    "compiler": {
        "name": "solc",
        "version": "0.6.12+commit.27d51765"
    },
    "functionHashes": {
        "FEE_DIVISOR()": "9e93ad8e",
        "batch(bytes[],bool)": "d2423b51",
        "batchFillOrder((address,uint256,uint256,address,uint256,uint256,uint256,address,bytes,uint256,uint8,bytes32,bytes32)[],address,address,address,bytes)": "995f14ba",
        "batchFillOrderOpen((address,uint256,uint256,address,uint256,uint256,uint256,address,bytes,uint256,uint8,bytes32,bytes32)[],address,address,address,bytes)": "80fdbba7",
        "cancelOrder(bytes32)": "7489ec23",
        "cancelledOrder(address,bytes32)": "6745b38f",
        "claimOwnership()": "4e71e0c8",
        "deploymentChainId()": "cd0d0096",
        "externalOrderFee()": "5947cde6",
        "feeTo()": "017e7e58",
        "feesCollected(address)": "5b2478ea",
        "fillOrder((address,uint256,uint256,address,uint256,uint256,uint256,address,bytes,uint256,uint8,bytes32,bytes32),address,address,address,bytes)": "7074a67c",
        "fillOrderOpen((address,uint256,uint256,address,uint256,uint256,uint256,address,bytes,uint256,uint8,bytes32,bytes32),address,address,address,bytes)": "95287c05",
        "orderStatus(bytes32)": "2dff692d",
        "owner()": "8da5cb5b",
        "pendingOwner()": "e30c3978",
        "permitToken(address,address,address,uint256,uint256,uint8,bytes32,bytes32)": "7c516e94",
        "setFees(address,uint256)": "5e5c6ada",
        "swipe(address)": "cce7db58",
        "swipeFees(address)": "c5b82ae0",
        "transferOwnership(address,bool,bool)": "078dfbe7",
        "whiteListReceiver(address)": "56e88ff1"
    },
    "gasEstimates": {
        "creation": {
            "codeDepositCost": "2219800",
            "executionCost": "infinite",
            "totalCost": "infinite"
        },
        "external": {
            "FEE_DIVISOR()": "250",
            "batch(bytes[],bool)": "infinite",
            "batchFillOrder((address,uint256,uint256,address,uint256,uint256,uint256,address,bytes,uint256,uint8,bytes32,bytes32)[],address,address,address,bytes)": "infinite",
            "batchFillOrderOpen((address,uint256,uint256,address,uint256,uint256,uint256,address,bytes,uint256,uint8,bytes32,bytes32)[],address,address,address,bytes)": "infinite",
            "cancelOrder(bytes32)": "22841",
            "cancelledOrder(address,bytes32)": "1440",
            "claimOwnership()": "45112",
            "deploymentChainId()": "infinite",
            "externalOrderFee()": "1051",
            "feeTo()": "1094",
            "feesCollected(address)": "1291",
            "fillOrder((address,uint256,uint256,address,uint256,uint256,uint256,address,bytes,uint256,uint8,bytes32,bytes32),address,address,address,bytes)": "infinite",
            "fillOrderOpen((address,uint256,uint256,address,uint256,uint256,uint256,address,bytes,uint256,uint8,bytes32,bytes32),address,address,address,bytes)": "infinite",
            "orderStatus(bytes32)": "1239",
            "owner()": "1137",
            "pendingOwner()": "1202",
            "permitToken(address,address,address,uint256,uint256,uint8,bytes32,bytes32)": "infinite",
            "setFees(address,uint256)": "43568",
            "swipe(address)": "infinite",
            "swipeFees(address)": "infinite",
            "transferOwnership(address,bool,bool)": "infinite",
            "whiteListReceiver(address)": "23301"
        },
        "internal": {
            "DOMAIN_SEPARATOR()": "infinite",
            "_calculateDomainSeparator(uint256)": "infinite",
            "_fillOrderInternal(contract IERC20,contract IERC20,contract ILimitOrderReceiver,bytes calldata,uint256,uint256,uint256)": "infinite",
            "_getDigest(struct StopLimitOrder.OrderArgs memory,contract IERC20,contract IERC20)": "infinite",
            "_preFillOrder(struct StopLimitOrder.OrderArgs memory,contract IERC20,contract IERC20,contract ILimitOrderReceiver)": "infinite"
        }
    }
}